:020000040800F2
:1000000010090020C90000085D0900085F09000808
:1000100000000000000000000000000000000000E0
:100020000000000000000000000000006709000858
:100030000000000000000000690900086B090008CA
:10004000DB000008000000007D330008DB00000832
:10005000DB000008DB000008DB00000803090008E3
:1000600000000000DB000008DB000008DB000008E7
:10007000DB000008DB000008DB00000800000000D7
:10008000313800080000000000000000DB0000081C
:10009000DB000008DB000008DB000008DB000008D4
:1000A000DB000008DB000008DB000008632F00080D
:1000B000BB2F00080348854604F0CCF800480047F1
:1000C00053080008100900200448804704480047EE
:1000D000FEE7FEE7FEE7FEE7FEE7FEE7652C000829
:1000E000B5000008F8B50026FA4C009660780128A3
:1000F0002DD16670F8A004F0E1F8002527464037BE
:1001000006E060198178FAA004F0D8F86D1CEDB211
:10011000B878A842F5D8F7A004F0D0F8E07869469E
:1001200008703F2822D0F94C612811D062281AD0DB
:1001300063280CD12279E178F5A004F0BFF8E169D9
:10014000FAA004F0BBF8617BFEA004F0B7F8F8BD9C
:100150000120A07003F049FA81B2A182FDA004F051
:10016000ADF8A670F8BD02F0BEFFF8BDFDA004F02A
:10017000A5F8F8BDF0B5D74F87B00025433F0095EF
:1001800078780126012820D17D70FBA004F096F834
:100190000024403708E0CF48433800198178D4A0C4
:1001A00004F08CF8641CE4B2B878A042F3D8F8A04C
:1001B00004F084F8C7486A46433841791170007AE0
:1001C00050703F2901D1D1480672D04C0127A07947
:1001D0003F03012810D109203946C00600F086FEF1
:1001E000012801D103F0EDFA207A012804D1C74893
:1001F0002572243003F04AFA6079012803D0A179EE
:10020000084331D039E009203946C00600F06EFEBF
:10021000012801D103F0D5FA207A01282DD16846B2
:100220000078422812D168464078002802D0012880
:1002300010D00BE0012168464902818006763146E4
:1002400001A802F064FED5A004F038F8607A012815
:1002500001D004E06672207B00280ED126730021B5
:10026000422002F037FE08E009203946C00600F0BF
:100270003DFE002801D103F0A4FA684600783E282C
:100280000BD0A07A012806D12572207B002802D14C
:10029000A5726571A57107B0F0BD03202073A67229
:1002A000F2E79A4824300178C91F0F290DD8417808
:1002B000002901D01E2908D194498A79002A04D145
:1002C0008078002801D1012088717047F0B585B091
:1002D00003206946087148710024CC71B34809268F
:1002E000F6060090304600F0AAFD6946B04800F0DE
:1002F000A6FD6946AF4800F0A2FD69460C710125D4
:10030000CD7180273046009700F099FD0021AA4862
:1003100001F0BBF80021A94801F0DCF80021A80396
:1003200001F0CFF80021A64800F069FB072100206A
:1003300001F0A6FD694602978D730C730C2048737B
:1003400002A800F0F3FC0720694608744C748D7411
:1003500004A800F0FDFD6D48C169E80701430120D4
:1003600001F0AFFC0121084600F06AFE05B0F0BDC7
:10037000F8B5664C208AC1075FD040084000208253
:10038000012109200903C00600F0B0FD01468DA03F
:1003900003F094FFA0790026012816D06079012887
:1003A00013D06078082810D0A069FF21401C2D319F
:1003B000A06188420AD3FFF789FFBFF34F8F8949B5
:1003C0008748C860BFF34F8FFEE7A661207B0028F7
:1003D00001D0401E2073E079401CC0B2E0710A28B1
:1003E00000D9E671494F6078243700281FD1E079A1
:1003F0003D46103508280DDAA67338780A2103F037
:100400006DFD2880698078780A2103F067FDA88057
:10041000E9800CE0082811D003F00EFDC0B2607333
:100420000A2103F05BFD288069800120A073BB785E
:100430007A7839786CA003F041FFF8BD03F0FCFC3A
:10044000C0B260730A2103F049FD28806980012051
:10045000A073A07003F0C9F881B2A18267A003F075
:100460002DFF7D25A670ED002946A08A03F036FDFC
:100470000146664803F032FDC8306082A84200D9C8
:100480006582618A62A003F019FFD0E770B51F4C46
:10049000208A01051AD50121C902884320822146FC
:1004A0002431002001F071F9607808280ED1E0694C
:1004B0003C214843E18A884209D3214628310A1F5A
:1004C0004B785078834203D23C25A9E0BCE0BCE0E5
:1004D000B1E00000CB0000200D0A1B5B33326D52EF
:1004E00058325F5354415254201B5B306D0D0A004B
:1004F000253478000D0A1B5B33316D5258325F454D
:100500004E441B5B306D0D0A00000000000000200F
:1005100040C4D6D6D3C9E8B6A8CAB1BCE42020A34B
:10052000BA25642D25640D0A0000000040B6A8CA53
:10053000B1C6F7C9E8B6A8CAB1BCE4A3BA25640D30
:100540000A00000040CEC2B6C8A3BA2564B6C80DE2
:100550000A000000406765726C69676874203A257C
:10056000640D0A0040B0EFD6FACEC4BCFEA1BE684E
:10057000656C70A1BF0D0A000D0A1B5B33326D2044
:1005800052585F5354415254201B5B306D0D0A008A
:100590000D0A52585F454E440D0A0000545453430F
:1005A0006D6453656E642E2E2E0D0A00FFFF000051
:1005B000000400480008004801000E00020002206C
:1005C00000240140566F696365506F7765725377F9
:1005D000697463685374617465203A25640D0A0078
:1005E0000400FA0500ED00E0253032642D2530329C
:1005F000642D253032640D0A000000006765726CBE
:1006000069676874203A25640D0A0000B80B000081
:10061000676C65646C69676874203A25640D0A002C
:10062000897892786B43684359188018081AE12139
:100630000901401807E03C25897892786B436843AC
:1006400059188018081AE08270BD00206070E0829E
:100650000120A07170BDF8B5AC48AC4B02463432F5
:100660004778108851889588DE7AA94CD2883B005B
:1006700003F04BFE090628372727475768812700D4
:10068000A24B9B7B002B0BD0012B1AD1225C9F48E5
:100690002C300280615C41806321818039212EE011
:1006A000235C9A482C300380615C4180615D8180CD
:1006B000A25CC280730604D58023194381801A434B
:1006C000C280F8BD235C91482C300380615C41807E
:1006D000615D8180A15CC18020E0002101804180BA
:1006E000F8BD235C89482C300380615C4180615DEA
:1006F0008180A15CC1807106F2D5002120E0C1801B
:10070000F8BD235C81482C300380615C4180635DCF
:1007100080210B438380A25C0A43C2807106DCD433
:10072000F8BD235C79482C300380615C4180635DB7
:1007300080210B438380A25C0A43C2807206EFD5FE
:100740008180DCE7714D77202C35288038206F4E72
:100750006880F0690A2801D2002004E00A21F069CB
:1007600003F0BCFB205CA8800A21F06903F0B6FB13
:10077000605CE880F8BD65484B21C78AC9008F429C
:100780002BD2624D00202C3528803C21384603F0C6
:10079000A5FB0F460A2103F0A1FB00291AD1002076
:1007A00068800A2F10D2A88038460A2103F096FBF1
:1007B000605CE880B00920D00128DBD1534880225A
:1007C0002C30C18811439AE738460A2103F086FB92
:1007D000205CE8E7605C6880F6E7384603F07EFB63
:1007E0004A4D205C2C3528803C21384603F076FBAE
:1007F0000F460A2103F072FBECE7444880222C30BC
:10080000818811438180F8BD1FB50121022000F0CD
:1008100061FE10216846017301214173817303A8B1
:1008200000F096FB7D2001903A4968460180002146
:1008300001814180384C6946204601F09BFB012232
:100840001146204601F008FF0121204601F003FC7B
:100850001FBD2E4C0020206202F000FC02F092FA34
:1008600002F0D9FA02F096FE02F0D4FF02F096FFF1
:10087000002002F0A6FF02F031FDFFF7C5FF27A21E
:1008800026A127A003F01AFD02F02DFC012001F0A3
:1008900020FA002805DA012001F01BFA4000400888
:1008A000E0611A490020243100F06FFF174E0A2141
:1008B0002436307803F012FB3546103528806980E5
:1008C00070780A2103F00AFBA880E98003F04CFA53
:1008D0004025012000F0A9FB208A410606D5A84347
:1008E0002082207803F05CF8FFF7B5FEFFF7CEFD1D
:1008F000FFF73EFDFFF7D5FCFFF73CFCFFF7F2FBEF
:10090000E7E710B5802000F058FA10BD0000002085
:10091000B8470008E703000000040040302E310013
:100920001B5B3033356D4D61696E20566572200D4D
:100930000A48415244574152455F5645523A257341
:10094000200D0A534F4654574152455F5645523A7F
:1009500025731B5B306D200D0A000000704709A055
:1009600003F0ACFCFBE7704770470E480188002994
:1009700001D0491E01800C490878002801D0401E92
:1009800008707047486172644661756C745F4861B5
:100990006E646C65722E2E2E2E2E2E2E2E2E2E2E48
:1009A0000D0A0000400000203F000020864910B5DD
:1009B000884208D144150121204600F09DFD002108
:1009C000204600F099FD10BD30B5C3687F4A8C68A1
:1009D00013400A680D792243CC686D032C432243EF
:1009E0000C69496922430A431A43C26030BD0021A1
:1009F000016001718160C16001614161704700293E
:100A0000816801D0012200E0022211438160704719
:100A100001617047002A026901D00A4300E08A435D
:100A2000026170470122D2030029C16801D011433D
:100A300000E09143C1607047012292030029C16820
:100A400001D0114300E09143C16070470122D205FB
:100A50000029C16801D0114300E09143C160704793
:100A60000904114301627047C2681F239B069A4321
:100A70000A43C2607047012292050029C16801D073
:100A8000114300E09143C160704701225049D205F3
:100A90000028886801D0104300E0904388607047C8
:100AA00001224B4992050028886801D0104300E0DC
:100AB00090438860704701224549120600288868E3
:100AC00001D0104300E0904388607047836A0B4375
:100AD000836242617047012252030029C16801D03C
:100AE000114300E09143C1607047012212040029C4
:100AF000C16801D0114300E09143C16070470122F9
:100B000012030029C16801D0114300E09143C16084
:100B10007047826800210123DB071A4382600F239C
:100B20001B038268491CD20FD207994201D0002AC8
:100B3000F7D18168002901DB006C70470020704705
:100B4000816810221143816070478168042211433B
:100B500081607047006C80B270470029C16802D084
:100B60000122114301E049084900C1607047C26891
:100B700002239A43C260C2680A43C2607047002AD7
:100B8000426801D00A4300E08A434260704702464F
:100B90000020CB0104D5926801231B069A4300E094
:100BA00012680A4200D00120704701607047024677
:100BB0005368002012680B400A4202D0002B00D07C
:100BC00001207047016070470024014003D2FFFFFD
:100BD0000027014001684D4A114001600021016079
:100BE00041608160C1604A49494A0839904202D156
:100BF00048680F2205E0464A1432904204D1486802
:100C0000F022104348607047414A2832904203D195
:100C100048680F221202F4E73D4A3C32904203D169
:100C200048680F221203ECE7394A5032904203D150
:100C300048680F221204E4E7354A6432904203D137
:100C400048680F221205DCE7314A78329042DAD147
:100C500048680F221206D4E730B503682D4A0C6AA3
:100C600013408A684D6922430C692C4322438C69E6
:100C70002243CC6922434C6A22438C6A22431A43A2
:100C80000260CA6842600A6882604968C16030BD1B
:100C90000021016041608160C16001614161816149
:100CA000C16101624162816270470029016802D01E
:100CB0000122114301E0154A114001607047416073
:100CC0007047406880B27047002A026801D00A432A
:100CD00000E08A430260704701460D4A0020083A4E
:100CE00012680A4200D0012070470949083948605B
:100CF00070470146064A0020083A12680A4200D0AE
:100D0000012070470249083948607047FEFF000023
:100D1000080002400F80FFFF30482F49016000218A
:100D200041608160C1602E494161704710B583798F
:100D30002A490268002B26D00B6893430B604A684F
:100D400003689A434A60027952181368046823437F
:100D500013608A6803689A438A60CA6803689A4382
:100D6000CA604279102A05D051180A680068024307
:100D70000A6010BD8A6803681A438A60CA680068FE
:100D80000243CA6010BD00794018016891430160B8
:100D900010BD0021016001710C2242718171704708
:100DA0000E490A6902430A6170470C4A01465269BA
:100DB00000200A4200D0012070470849486170476E
:100DC000064A0146526900200A4200D001207047BD
:100DD00002494861704700000000940F0004014080
:100DE000FFFF6B00092110B5C906884202D101211D
:100DF0004C0404E05049884209D1012104022046F4
:100E000000F071FB0021204600F06DFB10BD4B4946
:100E1000884202D101210402F1E74949884202D106
:100E200001210C05EBE74749884202D10121440228
:100E3000E5E745498842E9D101218C05DFE7F0B5B6
:100E40000022012423460D6893401D409D422AD173
:100E50000D79012D01D0022D12D18768550003268E
:100E6000AE40B74387604E79AE4085682E438660BA
:100E700085889D43858085888B7993401D43858037
:100E8000066855000323AB409E4306600E79076851
:100E9000AE403E430660C6689E43C660CB79AB4019
:100EA000C5682B43C360521C102ACBD3F0BD274921
:100EB000016000210171012242718171C17170478D
:100EC000012208B512040A430092C261C16100996F
:100ED000C161C169C069009008BD0246128A002044
:100EE0000A4200D001207047008A70470246928A69
:100EF00000200A4200D001207047808A704781613B
:100F0000704701857047002A01D0816170470185D3
:100F10007047818270474B07DB0E9A40C90810B5B5
:100F200089000818016A0F249C40A1430162016AEC
:100F30001143016210BD0000000400480008004891
:100F4000000C00480010004800140048FFFF00009B
:100F500030B5837801210278002B15D09408174B07
:100F6000A400E41823689207D50EFF22AA409343F9
:100F700042789207120EAA401A4322600078C006F7
:100F8000C00E81400E4804E0D006C00E81400C48DF
:100F90008030016030BD0B4A0029116901D0014346
:100FA00000E0814311617047042207490428086961
:100FB00002D09043086170471043FBE700E400E073
:100FC00000E100E000ED00E000E000E010B50121EC
:100FD0000C07204600F099FA0021204600F095FA0F
:100FE00010BD33498A150028086801D0104300E07D
:100FF0009043086070472E4A1168E02399430143EB
:10100000116070472A4910220028086801D0104357
:1010100000E0904308607047254A0029516801D0DC
:10102000014300E081435160704722490A6904236B
:101030009A430A61012801D020BF704730BF704732
:101040001B4B1A689208920002431A601948036900
:10105000042213430361012906D0022906D0016945
:10106000022211430161704730BF00E020BF0169D7
:101070009143F7E70E48026804210A4302600268C0
:1010800002231A4302600B4802690A43026130BF1F
:101090007047074A0146526800200A4200D00120EA
:1010A000704703490A68800002430A6070470000E5
:1010B0000070004000ED00E0F74801680122114394
:1010C00001604168F54A114041600168F44A1140ED
:1010D00001600168012292049143016041683F224E
:1010E000120491434160C16A09090901C162016B9F
:1010F000FF22543291430163416B49084900416327
:10110000002181607047E44900228A70887070472E
:1011100003460020E0495A090CD0012A0CD0022ACB
:101120000CD0496BDA06D20E012393400B4200D05B
:10113000012070470968F5E7096AF3E7496AF1E7B2
:1011400018B500200524240300901120FFF7E0FFCC
:101150000099491C0091A14201D00028F5D011202E
:10116000FFF7D6FF002800D0012018BDCA4A116839
:10117000F8239943C000084310607047C64900280F
:10118000086802D00122104301E0400840000860D6
:101190007047C14A516BF8239943C000084350631C
:1011A0007047BD490028486B02D00122104301E07E
:1011B0004008400048637047B74904220028486B44
:1011C00001D0904300E0104348637047B2490A6A77
:1011D000520852000A620A6A04239A430A620A6A9F
:1011E00002430A627047AC490A6A18239A430A62AA
:1011F0000A6A02430A627047A7490028486A02D077
:101200000122104301E0400840004862704710B5D9
:10121000A14A53687B24E403A34353605368084303
:101220000343536010BD01229B4912060028086841
:1012300001D0104300E090430860704701229649B6
:1012400012040028486B01D0104300E0904348632B
:101250007047914AD16A090909010143D162704777
:1012600001228D49D2040028086801D0104300E013
:10127000904308607047884A53681B021B0A0006A7
:101280000843184350607047834A516889088900B1
:10129000014351607047804840680C210840704706
:1012A0007D4A5168F02399430143516070477A4A5F
:1012B000516807231B0299430143516070477649E7
:1012C0004A6801239B039A434A604A6883B21A43DF
:1012D0004A600A6B8B159A430A630A6B000C02433F
:1012E0000A6370476C490A6B40239A430A630A6B8E
:1012F00002430A63704768490A6B10239A430A63E2
:101300000A6B02430A637047020F6349012A0A6BA2
:1013100007D003231B049A430A630A6B02430A6340
:10132000704792089200F7E75B490A6B80239A4363
:101330000A630A6B02430A637047F8B5564D0446C8
:10134000696800200C22574E114005D0042903D0B3
:10135000082903D00C2918D0266018E0696868684D
:1013600003228902D2030F0F1040BF1C002809D0AE
:10137000E86A0107090F3046491C02F0AFFD7843C7
:10138000206004E048487843FAE7484921606968EA
:10139000474B0906090F5A5C21680F46D740676022
:1013A0006A685205520F9A5CD740A7602A6BD20533
:1013B00001D4404A05E06A68520401D47A0800E08A
:1013C000BA08E2602A6B53063B4A03D43A4B123305
:1013D000236100E022612B6BDB0601D4666100E033
:1013E00061612B6B9B070ED02B6B9B079B0F012B17
:1013F0000BD02B6B9B079B0F022B08D02B6BDB4377
:101400009B0706D006E0A76104E0A16102E0A261AB
:1014100000E0A6612B6B9B039B0F0FD02B6B9B03F4
:101420009B0F012B0CD0296B8903890F022909D04E
:10143000296B8903890F032906D006E0E76104E0E0
:10144000E16102E0E26100E0E661296B090600D497
:1014500016482062F8BD10490A6A02430A627047C2
:101460000D490028144A086A01D0104300E0904357
:10147000086270470122084912040028086A01D056
:10148000104300E0904308627047034A0029516905
:1014900014D0014313E00000001002400CB8FF0814
:1014A000FFFFF6FE00127A0000093D00006CDC022E
:1014B00042000020809FD5000080000081435161E0
:1014C0007047244A0029916901D0014300E081431B
:1014D000916170471F4A0029D16901D0014300E0A2
:1014E0008143D16170471B4A0029916A01D00143B1
:1014F00000E0814391627047164A0029D16801D00B
:10150000014300E08143D1607047124A002911690C
:1015100001D0014300E08143116170470D4A002969
:10152000517A01D0014300E081435172704709486C
:10153000416A01221206114341627047054A014681
:10154000926800200A4200D0012070470149887249
:10155000704700000010024018B50020F6490090C6
:101560008868800601D5012018BDCA204862532032
:101570004862C868A0229043C86020229302C868CD
:10158000009C1040641C00949C4201D00028F6D0BE
:10159000C868800601D5012000E00020FF224A62D1
:1015A00018BD18B500200090E348C168490612D460
:1015B0000021C943C16040220314C168009C11404E
:1015C000641C00949C4201D00029F6D0C0684006FB
:1015D00001D4002018BD012018BD30B50025D64C1F
:1015E000CA20606253206062FFF7DBFF002816D03C
:1015F00000212160D1486061D1486060A068A1608D
:10160000D0482061E161E162E163CB484030416054
:10161000E1600160FFF7A0FF002800D00125FF2056
:101620006062284630BDC448C16880229143C160D1
:10163000704770B505460026BF4CCA206062532033
:101640006062FFF7AEFF002811D0A06840218843F8
:10165000A060A06829680843A060A868206120698C
:10166000A988090408432061FFF7DDFF0126FF2058
:101670006062304670BD002101607F214160FF2122
:1016800081607047AC49002801D0FF2002E0CA20E9
:10169000486253204862704770B506460025A64C44
:1016A000CA20606253206062FFF77BFF00280AD0E7
:1016B0001020A168002E01D0014300E08143A16009
:1016C000FFF7B1FF0125FF206062284670BD9A49EF
:1016D000CA224A6253224A620028886802D0202225
:1016E000104301E0DF2210408860FF20486270470D
:1016F000F8B502460027904D0C46002A0978AA68E2
:10170000384605D052062FD5084600F085FB2CE060
:10171000520600D4E070084600F072FB06046078C0
:1017200000F06EFB00020643A07800F069FB064360
:10173000E07800040643CA20686253206862FFF71D
:1017400030FF00280CD0804806402E60FFF76BFF6A
:10175000A868800603D4FFF7FFFE002800D0012709
:10176000FF2068623846F8BDE0702078A678000453
:1017700006436078E178000209040843DAE70021B3
:10178000C170017041708170704770B50C466A4934
:101790000B686D4919408A024D04920E22706D0E3D
:1017A00049066570490EA1705902490E402319403F
:1017B000E17000280BD1104600F02EFB20706078FD
:1017C00000F02AFB6070A07800F026FBA07070BDCE
:1017D0005949886A4968704770B50C460146002629
:1017E000607800290ED000F017FBA07800F014FB01
:1017F000E078A57800040543607821780002490369
:10180000084314E0C10603D5EF2108400A30607098
:10181000E07800F0F5FA0504607800F0F1FA0002D3
:101820000543A07800F0ECFA054320784003054317
:10183000414CCA20606253206062FFF7B2FE00286C
:101840000CD0424805406560FFF7EDFEA0688006B9
:1018500003D4FFF781FE002800D00126FF2060623C
:10186000304670BD01210170817041700021C1704E
:101870007047024610B530480C464068C021C94345
:1018800001400002000ECB04E070DB0E63708B069B
:101890009B0E0904490FA3702170002A0AD100F0A1
:1018A000BBFAE070607800F0B7FA6070A07800F0E2
:1018B000B3FAA07010BD70B500211F4E0028B068AB
:1018C000144620D0400635D5207800F0A5FA207BBC
:1018D00000F0A2FA2078A578000405436078E1784A
:1018E0000002090408430543207B00060543A06865
:1018F000054360680543CA20706253207062F56139
:10190000FF20706270BD400600D4E170207800F0C6
:1019100077FA0504607800F073FA00020543A078B6
:1019200000F06EFA0543E07800040543207B00F0E8
:1019300067FADAE7E170CAE700280040FFFF00001D
:1019400001210000FF007F007F7F7F003FFFFF003D
:101950000021C170017041708170012281600273A9
:101960004160704770B5FF491446C96940258A0235
:10197000920E4B0422705B0E63704B065B0EA370DD
:101980000B0C2B40E3708B009B0E23732B060B403C
:10199000A360F54B1940616000280FD1104600F09C
:1019A0003BFA2070607800F037FA6070A07800F0A1
:1019B00033FAA070207B00F02FFA207370BD18B5A9
:1019C00000220092E74ACA2353625323536200293C
:1019D000916802D00143916012E081439160000A56
:1019E00001239B03D168009C0140641C00949C422D
:1019F00001D00029F6D0D168014201D1002000E0D9
:101A00000120FF21516218BDD648CA2343625323E7
:101A1000436212060A43D34940314A60FF214162C2
:101A20007047D048403040684004400C7047CD4972
:101A3000CA224A6253224A628A68D208D2008A6065
:101A40008A6802438A60FF2048627047C549CA22FB
:101A50004A6253224A624861FF2048627047C14887
:101A6000406980B2704718B500210091BD49CA2273
:101A70004A6253224A620A150028886802D010433D
:101A8000886011E09043886004221303C868009CBA
:101A90001040641C00949C4201D00028F6D0C86815
:101AA000400701D4002000E00120FF224A6218BD57
:101AB00010B5AC4ACA23536253235362936801247E
:101AC000A404A34393609368084303439360FF20F7
:101AD000506210BDA3488068012189040840704706
:101AE00010B5A04ACA235362532353629368072454
:101AF0002405A34393609368084303439360FF2046
:101B0000506210BD9749CA224A6253224A6201229A
:101B1000D2050028886801D0104300E09043886017
:101B2000FF20486270478F49CA224A6253224A62A4
:101B30008A680123DB049A438A608A6802438A60C8
:101B4000FF204862704770B50024864BCA255D624D
:101B500053255D62DD68ED0307D59D14DE68F6034D
:101B600003D5AC4201D0641CF8E7DC68E40304D47C
:101B700008431043D863012000E00020FF21596290
:101B800070BD10B5774B9A68784C2240002901D07F
:101B90000243D8140243CA205862532058629A6004
:101BA000FF20586210BD70B50D466E4914460B6B90
:101BB0006F4A496B1A40C026F64331409602B60E72
:101BC0002E705604760E52066E70520EAA705A028D
:101BD000520E40231A40EA700022E270CA04D20E6C
:101BE00062708A06920E0904490FA27021700028C3
:101BF00017D1287800F010F92870687800F00CF9F7
:101C00006870A87800F008F9A870607800F004F90E
:101C10006070A07800F000F9A070207800F0FCF867
:101C2000207070BD4F48806B70474E4A4000403274
:101C30000029116802D00143116070478143FBE71E
:101C4000484A40320029116801D0014300E0814335
:101C500011607047434940310A680323DB029A430D
:101C60000A600A6802430A6070473E4940310A68C8
:101C700007231B029A430A600A6802430A607047FE
:101C8000384940310A6803235B039A430A600A68B3
:101C900002430A60704733498022403100280868B7
:101CA00001D0104300E09043086070472D49403157
:101CB000CA130028086801D0904300E01043086070
:101CC0007047284A08B550328000801800900160A3
:101CD00008BD244908B550318000401800900068C4
:101CE00008BD204940310A6801239B049A430A60D9
:101CF0000A6802430A60704730B50022194CCA23B3
:101D0000636253236362E3681B0707D5A314E56886
:101D10002D0703D59A4201D0521CF8E7E26812075A
:101D20000AD4A268D20607D40143E162FFF714FC8B
:101D3000002802D0012000E00020FF21616230BDB8
:101D400030B5084ACA23536253235362042504461C
:101D5000044BAC4340332840002991680DD0214307
:101D6000916007E00028004080808080F7F7FFFF47
:101D70007F7F7F001968014303E0A14391601968E8
:101D800081431960FF20506230BD27490246C9686F
:101D90000020264B1940114200D0012070478021BD
:101DA0000843C003C00BC2431F48C3680B401A431B
:101DB000C260704770B51C49002240310B68042195
:101DC000194C0B40A168860C0546F540ED0B1D40F3
:101DD0000140E368294300090340002903D01804A7
:101DE000000C00D00122104670BD0009802108437C
:101DF00080B2C2430C48C3680B401A43C2607047AC
:101E0000002103E0491C0A38C9B2C0B20A28F9D23D
:101E10000907090E0843704701090A2200075143C8
:101E2000000F4018C0B270470028004078790100C8
:101E3000244801688907890F016000218160C16021
:101E400001614161816982151143816170471D4AB9
:101E5000116889088900014311607047194A0029F7
:101E6000116801D0014300E0814311607047154AB9
:101E70000029116801D0014300E0814311607047DF
:101E80008A07130F10B50F229A408C080D49A40041
:101E900061188C6894438C608A68984002438A6019
:101EA00010BD08498A6902438A61704705490020CC
:101EB0008969C90500D50120704702498A69024332
:101EC0008A61704700000140F94910B5884202D18B
:101ED0000121C4143AE001218907884206D1012179
:101EE0000846FFF712FB0021012008E0F149884273
:101EF00008D101210220FFF708FB00210220FFF793
:101F000004FB10BDEC49884206D101211020FFF7E7
:101F1000FCFA00211020F2E7E849884206D10121AD
:101F20002020FFF7F2FA00212020E8E7E449884268
:101F300007D1841501212046FFF7E7FA002120464A
:101F4000DDE7E049884209D101210C042046FFF772
:101F5000D3FA00212046FFF7CFFA10BDDA498842B4
:101F600002D101214C04F1E7D8498842F5D1012181
:101F70008C04EBE710B50288CD4B984206D00124C3
:101F8000A407A04202D0CB4CA04203D17024A243AC
:101F90004C882243C84CA04203D0CD4C22400C892F
:101FA000224302804A68C2620A880285984208D0A9
:101FB000C44A904205D0C44A904202D0C34A9042DB
:101FC00001D1897A01860121818210BD0021C94396
:101FD000416000210180018141808172704701854B
:101FE00082827047028870239A430A4302807047B6
:101FF00041627047C1627047406A7047008D704708
:1020000002220029018801D0114300E091430180A0
:10201000704704220029018801D0114300E0914358
:102020000180704780220029018801D0114300E01F
:10203000914301807047028808239A4302800288F6
:102040000A43028070470288A14B1A40028002882E
:102050000A43028070470029018802D001221143FF
:1020600001E0490849000180704710B50A884B8893
:10207000CC881A438B8823431A430B891A434B8914
:1020800089891A430A434030828010BD00210180B3
:1020900041808180C18001814181818170474030D0
:1020A0000029818803D00122D203114301E04904B1
:1020B000490C8180704730B5028C5208520002846E
:1020C000038C8288048B7025AC43A4080D88A4007F
:1020D00025430224A3438C891C434B882343744C1F
:1020E000A04208D0774CA04205D0774CA04202D045
:1020F000764CA0420DD10824A343CC891C43042371
:102100009C438B882343724C22400C8A14434A8A96
:1021100022438280058389684163038430BD70B5A2
:10212000028C10239A430284048C8288038B694DAD
:102130002B400D782D062D0C1D4320239C438B89AD
:102140001B051E0C4B8826431B051B0C584C3343A8
:10215000A04202D05B4EB04219D15F4E32400E8A8F
:10216000B604360C3243A04211D18024A343CC895B
:102170002405240C1C4340239C438B881B051B0C0B
:102180002343564C22404C8AA404240C22438280D0
:10219000058389688163038470BD30B5028C504B20
:1021A0001A400284038C8288848B7025AC43A40877
:1021B0000D88A40025434B4C23400C7B2406240CA3
:1021C0001C438B781B061B0C2343394CA04215D1B2
:1021D000424C23408C7B2406240C1C433E4B1C4069
:1021E0000B791B061B0C23433F4C22400C8A240511
:1021F000240C14434A8A1205120C224382808583E0
:102200008968C163038430BD30B5028C374B1A40F6
:102210000284048C8388828B2E4D2A400D782D06F3
:102220002D0C1543324A14400A7B1207120C22432C
:102230008C782407240C14431D4A904205D12D4A62
:1022400013400A8A9205120C1343838085838968A0
:102250000164048430BD002101804180818081605F
:102260008181C18101824182704730B503461833B4
:102270000124058C8C40A5430584002910D0082931
:102280000ED0091F0804400CC018016807231B0367
:102290009943016001681206120C1143016030BDC0
:1022A0004808C01801687023994301600168F4E789
:1022B000002C0140000400400010004000140040C9
:1022C000002000400040014000440140004801401F
:1022D000FFFC0000FF8C0000FFFB0000FFF7000088
:1022E000FFFE0000FFFD0000FFCF0000FFEF000039
:1022F000FFDF0000FFBF000041637047816370474C
:10230000C163704701647047028B70239A430A438C
:1023100002837047028BF64B09021A401143018376
:102320007047828B70239A430A4382837047828B63
:10233000EF4B09021A4011438183704700298188BD
:1023400002D00122114301E0490849008180704711
:10235000028B08239A430A4302837047028BE54BA2
:1023600009021A40114301837047828B08239A4364
:102370000A4382837047828BDE4B09021A40114365
:1023800081837047028B04239A430A430283704778
:10239000028BD94B09021A40114301837047828B8B
:1023A00004239A430A4382837047828BD24B0902EB
:1023B0001A40114381837047028B80239A430A435A
:1023C00002837047028B5204520C090211430183AD
:1023D0007047828B80239A430A4382837047828BA3
:1023E0005204520C0902114381837047028C02236C
:1023F0009A430A4302847047028C08239A430A4393
:1024000002847047028C20239A43090111430184FE
:102410007047028C80239A4309011143018470475D
:10242000028CB64B09021A40114301847047028C9A
:10243000B04B09021A40114301847047028CB04B23
:1024400009031A40114301847047028908239A4303
:10245000028102890A430281704710B50123048C6E
:102460008B409C430484038C8A401343038410BD37
:1024700010B50423048C8B409C430484038C8A4055
:102480001343038410BD04220029818801D0114325
:1024900000E0914381807047828B9A4B1A4082837F
:1024A000828B09020A4382837047828B0C239A43F2
:1024B0008283828B0A4382837047028B914B1A403E
:1024C0000283028B09020A4302837047F0B5048C31
:1024D0001026B4430484058B048C8B4F1B03090125
:1024E0003D402B4312021A43A0239C430C43344328
:1024F00002830484F0BD028B0C239A430283028B77
:102500000A430283704770B5048C64086400048435
:10251000058B048C1B011343F3260A22B543944315
:102520002B430C4301210C430383048470BDF8B595
:10253000044608884E888A880B890D4600281DD0DD
:10254000042824D00828208C2AD0704908402084F0
:10255000A08B278C31036C4E1202304002431803CB
:1025600010436B4AA08317400F43012109030F4317
:102570002784E9882046FFF78FFFF8BD31462046C3
:10258000FFF7C1FFE9882046FFF7B5FFF8BD3146E8
:102590002046FFF79BFFE9882046FFF78EFFF8BD36
:1025A0005C4908402084A18B208C3702F3261B0154
:1025B000B14313430B435849A3830840FF213843D9
:1025C000013108432084E9882046FFF76EFFF8BDFB
:1025D00000210180418001228280C18001817047F9
:1025E000F8B50C464988002601250746002900D188
:1025F0000226A288012A00D10225208823890028EA
:10260000384610D0FFF762FFE1883846FFF755FFE4
:1026100023892A4631463846FFF775FFE188384658
:10262000FFF769FFF8BDFFF76EFFE1883846FFF757
:1026300062FF23892A4631463846FFF747FFE18883
:102640003846FFF73AFFF8BD406B7047806B704724
:10265000C06B7047006C7047002A828901D00A4322
:1026600000E08A4382817047818270470246128A65
:1026700000200A4200D001207047C9430182704700
:102680000246138A002092890B400A40002B02D098
:10269000002A00D001207047C943018270471143CE
:1026A000403001817047002A828901D00A4300E04E
:1026B0008A438281704708220029818801D0114312
:1026C00000E09143818070470189C908C9000181F8
:1026D0007047028970239A430A430281704710B5FC
:1026E0000446FFF7F6FF208907210843208110BD2B
:1026F000FF8F0000FFF70000FFFB0000FFFD000060
:10270000FFDF0000FFF30000FF0C0000FFEF000000
:10271000FF5F0000FFFE0000FFF5000070B51646E9
:102720000D46044660290CD001223146FFF7EBFE2E
:1027300029462046FFF7CDFF208907210843208145
:1027400070BD01223146FFF7C1FEF1E710B50489E3
:102750001B021343E4B20B432343038110BD10B5A6
:102760000446FFF7F3FF2089C108C9000720014391
:10277000702081430143218110BD10B50446FFF74D
:10278000E5FF2089012189030843208110BD82884B
:1027900070239A43828082880A438280704702892C
:1027A000D208D200028102890A430281704702895D
:1027B00080239A43028102890A430281704770B5DF
:1027C0000689048B058CF608F6000E430C49068139
:1027D0000C40FF2102310C43AA218D431901114302
:1027E00029430483018470BD80220029818801D09F
:1027F000114300E09143818070474030018270476F
:10280000FCFC0000F74910B5884209D101218C0376
:102810002046FEF771FE00212046FEF76DFE10BD3A
:10282000F149884202D101214C0404E0EF49884279
:1028300009D101218C042046FEF767FE00212046C5
:10284000FEF763FE10BDEA498842FBD10121CC04AA
:10285000F1E730B50446006889B00D4640084000F5
:1028600020606068032109038843A968014361600F
:102870002068E049EA680840696811432A69024310
:1028800011432160A068032109028843696901435B
:10289000A1606846FEF751FDD248844201D10698F6
:1028A00005E0D148844201D1079800E002982168F0
:1028B0000904296800D5400001F010FB2A6852087D
:1028C0008A4200D8401C2168090404D50107CA4A7D
:1028D000490F10400843A08109B030BD4B21C90108
:1028E00001600021416081600C22C1600261416190
:1028F000704710B542680F231B029A4318C923433F
:102900000C6849680C4323431343436010BD002106
:10291000016041608160C16070470029016802D098
:102920000122114301E04908490001607047002A73
:10293000026801D00A4300E08A4302607047012226
:10294000D2030029016801D0114300E091430160E6
:1029500070470122D2020029816801D0114300E0B2
:102960009143816070470122D2040029416801D05F
:10297000114300E091434160704701229204002915
:10298000416801D0114300E0914341607047002A43
:10299000426801D00A4300E08A4342607047012246
:1029A000D2030029416801D0114300E09143416006
:1029B00070470122D2050029416801D0114300E08F
:1029C0009143416070474269120E120642614269AA
:1029D0000A4342617047028A120A12020282028A84
:1029E0000A430282704702220029016801D0114384
:1029F00000E0914301607047826803231B059A43FE
:102A0000826082680A4382607047012212050029B1
:102A1000416801D0114300E0914341607047426832
:102A200003235B059A43426042680A434260704751
:102A3000C905C90D01857047808CC005C00D704760
:102A400042681202120A4260426809060A43426062
:102A50007047012252030029016801D0114300E0B0
:102A600091430160704702680123DB029A430260D0
:102A700002680A4302607047426810239A4342602A
:102A800042680A4342607047426820239A4342608A
:102A900042680A434260704701229203002941685C
:102AA00001D0114300E091434160704708220029A2
:102AB000816801D0114300E0914381607047028A30
:102AC000D2B20282028A09020A430282704720229D
:102AD0000029816801D0114300E091438160704773
:102AE00010220029816801D0114300E091438160E8
:102AF0007047826807235B049A43826082684904B6
:102B00000A438260704742691202120A42614269B6
:102B100009060A4342617047826804239A4382602F
:102B200082680A438260704702220029816801D0CE
:102B3000114300E091438160704701229203002914
:102B4000816801D0114300E0914381607047826841
:102B50000123DB039A43826082680A4382607047E4
:102B600002681F235B059A430260026849050A4315
:102B70000260704702681F231B049A4302600268C8
:102B800009040A4302607047002A826801D00A43A0
:102B900000E08A4382607047826801235B039A43A6
:102BA000826082680A438260704710B50B041C0E75
:102BB00001238B40022C02D0032C02D002E0001D26
:102BC00000E008300168002A01D0194300E0994371
:102BD000016010BD002A028B01D00A4300E08A4345
:102BE0000283704700380140004400400048004024
:102BF000004C0040F3E9FFFFF0FF00008268012372
:102C00001B039A43826082680A438260E9E70246B6
:102C1000D26900200A42E4D00120E2E70162E0E745
:102C200030B50A04130E0122144600258C40012BF6
:102C30000ED0022B0ED08368090C2340C0698A4055
:102C40001040002B02D0002800D00125284630BDBE
:102C50000368F1E74368EFE70A0C01219140016244
:102C6000BFE7000010B54048016801221143016030
:102C700041683E4A1140416001683D4A114001608F
:102C80000168012292049143016041683F221204CD
:102C900091434160C16A09090901C162016BFF22C8
:102CA000543291430163416B49084900416300215B
:102CB000816000F02EF810BD70B52B4D69680C20B6
:102CC00001402C482C4C03D0042901D0082901D004
:102CD000206014E06A68696803239202DB03160F20
:102CE0001940B61C002907D0E96A0907090F491CD9
:102CF00001F0F4F87043EBE720484643266068682B
:102D00001D490006000F091D085C2168C1402160B3
:102D100070BD08B5002000901949112008601248C4
:102D2000416841604168416041687F22D20391431C
:102D3000416041680522D2041143416001680122CB
:102D400012061143016001688901FCD541688908B8
:102D500089004160416802221143416041680907CE
:102D6000890F0229FAD108BD001002400CB8FFF803
:102D7000FFFFF6FE00127A005400002000093D001B
:102D80000020024070B501218AB04804FEF77DFBA7
:102D900001218803FEF795FB1B2069460872002479
:102DA0004C7201258D7202A8FEF7D2F80921CE06D9
:102DB00001223046FEF7AFF801220A213046FEF725
:102DC000AAF80320400200900220694608718C7125
:102DD000CD71032048713046FEF731F84B2008943E
:102DE000C00104940594069403900C20944C079021
:102DF00003A92046FFF72DFD40212046FFF70EFFD7
:102E000001212046FFF789FD01228E492046FFF768
:102E1000CCFE0AB070BDF0B501214C0489B020464B
:102E2000FEF733FB01212046FEF754FB1C216846C8
:102E30000172002444720125857202A8FEF788F809
:102E40000927FF06012202213846FEF764F8012215
:102E500003213846FEF75FF80C26022168460096EB
:102E600001718471C5710321417169463846FDF7CE
:102E7000E6FFE12004940594069408944002724C05
:102E8000039003A907962046FFF7E3FC4021204664
:102E9000FFF7C4FE01212046FFF73FFD01226949EB
:102EA0002046FFF782FE09B0F0BDF8B50E46074692
:102EB0000024634D0BE0395D2846FFF7B9FD402142
:102EC0002846FFF7A4FE0028F9D0641CE4B2B442FF
:102ED000F1D3F8BD1CB5002300937E246A4601930C
:102EE0001470FF24547006249470D0701371080A73
:102EF00050719171EF20554CD0712078002805D188
:102F000008211046FFF7D1FF142020701CBDF0B53A
:102F100091B00C4605464021684601F010F87E212C
:102F200068460170FF2141706300D91C8170212126
:102F3000C170002208E051006E5A370A0E1837712E
:102F4000695C521C7171D2B2A242F4D35200EF21DB
:102F5000101801715B1DD9B26846FFF7A6FF11B0CA
:102F6000F0BD70B5374D364C29462046FFF758FE68
:102F7000002817D029462046FFF76EFE2046FFF7AF
:102F80005BFD3349C2B2487800280BD10846851C46
:102F90000023012440307E2A05D10E78012E02D074
:102FA0005A55847070BD8678725585786D1C857011
:102FB000EF2AF7D14C700B7070BD70B5214D224CCB
:102FC00029462046FFF72CFE00281ED02946204621
:102FD000FFF742FE2046FFF72FFDC2B21D481E49F3
:102FE00002704878002810D10846841C0023403025
:102FF000402A0BD10D78012D08D01549837040313E
:1030000089780A558178491C817070BD85782A5568
:103010008478641C8470232AF7D1012048700B70D7
:1030200070BD70B5084D0446C1B22846FFF700FDDB
:1030300040212846FFF7EBFD0028F9D0204670BD5F
:103040000038014005010500004400403F00002019
:103050008800002068000020CB00002010B504206C
:10306000FDF7A2FF2E487D21C9002E4C006800F01C
:1030700035FF401EA042FDD82B4948612B4807224E
:10308000C3691B021B0A4C042343C36100208861EF
:103090000A61FEF7F9F8264C60680007800FFBD143
:1030A000FEF7C1F820688001FCD40121C90400208A
:1030B000FEF7ADF80120FEF7B6F820688001FCD5D8
:1030C0000220FEF7E1F801208002FEF7F0F810BDC3
:1030D00000210246401E80B2002AFAD1491C49B2A2
:1030E0006429F6DB704700B589B06846FEF725F91C
:1030F00010A0009901F0E2F819A0019901F0DEF8A2
:1031000022A0029901F0DAF82BA0049901F0D6F878
:10311000FEF7C1F8014633A001F0D0F809B000BDB8
:1031200054000020FFFFFF0000E000E004ED00E09D
:10313000001002405243435F436C6F636B537472E1
:103140007563747572652E535953434C4B5F4672C9
:10315000657175656E637920202025640D0A000075
:103160005243435F436C6F636B5374727563747542
:1031700072652E48434C4B5F4672657175656E6390
:1031800079202020202025640D0A00005243435F4F
:10319000436C6F636B5374727563747572652E50F4
:1031A000434C4B5F4672657175656E6379202020D4
:1031B000202025640D0A00005243435F436C6F6377
:1031C0006B5374727563747572652E434543434C3B
:1031D0004B5F4672657175656E63792020202564AA
:1031E0000D0A00005243435F476574535953434CE3
:1031F0004B536F75726365203A253032780D0A00A3
:10320000704708B569460020FEF7BFFA6846837824
:10321000427801785FA001F051F808BD38B56948DF
:1032200001F04CF800246846C47067A001F046F82D
:103230006846047000216AA001F040F86BA001F01C
:103240003DF868464470214665A001F037F86DA04E
:1032500001F034F837216846817061A001F02EF842
:1032600069460020FEF744FA002810D06BA001F058
:1032700025F8FFF7C6FF73490020FEF722FD012164
:103280008803FEF75DFD0120FEF7EDFB38BD6EA063
:1032900001F014F8F3E710B501210807FEF71AF959
:1032A0000120FDF79EFE0120FDF790FF2120FDF794
:1032B0002FFF0028FAD0FF200130FEF7CCF80121C3
:1032C000C803FEF73DFD6A48FF2141607F21016090
:1032D0000120FEF7C5F8FEF73FF910BD0EB500203E
:1032E000FEF7F7FC5749884215D0FFF7D4FF604836
:1032F0000168019140680290002000906846FEF746
:1033000098F9002805D05BA000F0D8FFFFF786FFF2
:103310000EBD66A0F8E75B20FDF7FAFE002801D09D
:1033200071A005E05A20FDF7F3FE002802D077A037
:1033300000F0C4FF7EA000F0C1FF01210807FEF7E6
:10334000C9F80120FDF74DFEFEF706F90120C00285
:10335000FEF725FD0120C004FDF73AFD0EBD1FB5A7
:10336000FF216A4601310020FEF7FCFA68468378A7
:103370004278017877A000F0A1FF1FBD10B5FFF7DC
:1033800040FF01200003FEF730FD0120C004FDF7DF
:103390001FFD10BD0A0D20205468652063757272F0
:1033A000656E742074696D65206973203A2020254C
:1033B000302E32643A25302E32643A25302E326473
:1033C000200A0D00D44700082020506C6561736509
:1033D0002053657420486F7572733A0A0D0000001F
:1033E000202025302E32640A0D0000002020506C71
:1033F0006561736520536574204D696E75746573DE
:103400003A0A0D002020506C656173652053657485
:10341000205365636F6E64733A0A0D000A0D3E3ED9
:1034200020212120525443205365742054696D6536
:1034300020737563636573732E202121203C3C0A41
:103440000D000000F03200000A0D3E3E2021212038
:10345000525443205365742054696D652066616938
:103460006C65642E202121203C3C0A0D00000000E8
:103470006C0000200A0D2020202F215C2A2A2A2AF5
:103480002A20525443205072657363616C65722028
:10349000436F6E666967206F6B202A2A2A2A2A2AC0
:1034A0002A2A2F215C200A0D000000000A0D20208E
:1034B000202F215C2A2A2A2A2A2052544320507283
:1034C000657363616C657220436F6E666967206621
:1034D00061696C6564202A2A2A2A2A2A2A2A2F212D
:1034E0005C200A0D000000000D0A20506F77657205
:1034F000204F6E205265736574206F63637572721E
:1035000065642E2E2E2E0A0D000000000D0A2045A7
:10351000787465726E616C205265736574206F6398
:103520006375727265642E2E2E2E0A0D0000000047
:103530000A0D204E6F206E65656420746F20636FE6
:103540006E666967757265205254432E2E2E2E0AC0
:103550000D0000000A0D202054686520637572720A
:10356000656E7420616C61726D206973203A202051
:1035700025302E32643A25302E32643A25302E32F0
:1035800064200A0D000000000146401E80B20029A0
:10359000FAD170477CB501218804FDF776FFFF2042
:1035A0000090012469460C71002088710320314D80
:1035B00048712846FDF743FC69460F208C710002D4
:1035C00000902846FDF73BFC7CBDFF23DB43834393
:1035D00048002949085C2749184388821046521E32
:1035E00092B20028FAD188827047FEB5214E00229F
:1035F00001213046FDF787FC01221502294630469D
:10360000FDF781FC00276846077169463046009542
:10361000FDF715FC194E002429461648FDF75DFC00
:10362000002802D0641CB442F6D30121684601711F
:10363000877103214171FF200230009069460D48D7
:10364000FDF7FDFB2046FEBD0D4A0E4913780888A4
:10365000002B05D00C4B984208D2C01C088007E014
:10366000052801D9C01EF9E7012000E000201070F4
:1036700008887047000400482C00002040420F00DA
:103680007400002012000020E3030000F0B506469D
:1036900087B000780A2100F021FC6A461070517052
:1036A00004460D4670780A2100F018FC6A46002393
:1036B0009070FF23D17016339380E31DF9330227F6
:1036C0000126D3801776012C00D116761746127E7C
:1036D000FF2653000B3601AAD6523B7E5B1CDBB2A1
:1036E0003B76002C01D15B1E3B763C7EEB1DF93313
:1036F000640013533B7E3C465B1CDBB23B76002DE3
:1037000001D15B1E2376247EFF230C336400135308
:103710003B7E3C465B1CDBB23B76002801D1002996
:103720000BD0C41DF9345B00D4523B7E3C465B1C7D
:10373000DBB23B76012808D009E0FF2018305900A1
:103740005052207E401C207622E05B1E23761B0612
:10375000DB0DD652237E5B1CDBB22376002801D121
:103760005B1E2376237EC81DF9305B00D052207E7D
:103770002346401CC0B22076002901D1401E187695
:10378000187EFF210F3140001152197E491C197615
:10379000217E1046FFF7BBFB07B0F0BD1CB5012131
:1037A0004804FDF772FE0120694608718871002007
:1037B000C8710120000300900920C006FDF73FFBFF
:1037C0001CBD7CB503210924012549020322E4061E
:1037D0002D0301280FD000280CD1009168460271FA
:1037E000427169462046FDF72AFB01222946204600
:1037F000FDF789FB7CBD0091022168460171002123
:1038000081710121C171427169462046FDF717FBA4
:103810000022EBE71CB50021684601710121C1714E
:10382000F020009009206946C006FDF708FB1CBD8A
:10383000F8B50121F948FEF72FFFF94801687F2903
:1038400001D2491C0160F74EF74C30780025C04387
:103850000007002826D12088402108432080092025
:10386000C006FDF741FBF0210840F0490309F04A8A
:1038700088710F2B15D0C30601D401230B7083066A
:1038800001D402230B70430601D403230B700006FE
:1038900002D40420087002E00878002802D01070DA
:1038A00000E01570DF490878401CC0B20870E1499B
:1038B00006460A78521CD7B20F701E2100F00EFB8C
:1038C0001D2904D120880121090308432080D948FB
:1038D000402F05D921880122D20211432180057091
:1038E000D0487F2E04D9057020880121084320800C
:1038F000CE4CD24E2570D04DD14F2878002806D11D
:1039000021783A888800305A80B2FFF75EFE20782E
:10391000401CC0B220700428EFD3F8BD30B5C349B5
:1039200004464B780A4600259278A34205D0002B26
:1039300003D0002C18D0002016E0002814D0C82A8C
:1039400002D8CB785B1CCB70CB78934223D3CD705D
:10395000002A12D0012A01D901228A70C922012825
:103960000DD004280BD011E0C92A04D0012B01D0BE
:10397000042B00D118468D7010E00822EDE78B78FB
:10398000022B08D220460A308A70C0B2022804D026
:10399000032802D002E0002000E08A704C7030BDA5
:1039A000F0B58BB0FFF7BAFFA649024608700025B4
:1039B00001260227A44C9D48A449032A72D018DC92
:1039C000002A6DD0012A41D0022A69D10978002944
:1039D00069D0072968D0012967D002297ED005293E
:1039E0007DD006295CD19A4801783B2978D2491CC0
:1039F00011E1042A75D00B2A52D10A78002A4FD13E
:103A000001220A70934906460B7803714A78427185
:103A1000194691A000F052FC0A21307900F05EFABC
:103A2000208061800A21707900F058FAA080E1803E
:103A3000FF2168461531018001210175FF211431F4
:103A400041800775C91C818003216AE00A78002A39
:103A500024D0072A72D00C46FF210D31052A25D02B
:103A6000062A26D0012A57D0022A19D1794902798B
:103A70000B78934203D14B784479A34206D00A7065
:103A80004079487073490020FDF732FE6F48FF21EE
:103A900005706846133101800675CFE7072008706E
:103AA0000BB0F0BD7DE040E04BE052E0062020701E
:103AB00033E0FF2000210130FDF781FF6B4806AAAB
:103AC00001786846017662480178684641768576D5
:103AD00008A8089506710120C00703E042E04AE00B
:103AE00057E0FCE0C10D07900020FDF7E4FE60A068
:103AF00000F0E4FB01210803FEF722F9012108028E
:103B0000FDF75DFFFF211B31257068460180CA1F4C
:103B100006753946428004E02770684605750180C5
:103B200031460175FFF7F3F9BAE75B4801780029E0
:103B300002D0012903D059480670B1E742E0057070
:103B4000AEE7574801683B2901D2491C41E00560B6
:103B5000A6E70179172901D2491C42E005710A2123
:103B6000007911E041793B2901D2491C41E04571BE
:103B70000A21407910E03D480178172901D2491CFB
:103B800040E005700A21007800F0A8F920806180EB
:103B900086E705700A21007800F0A0F9A080E18096
:103BA0007EE70A783B26072A0ED01723012A14D075
:103BB000022A1AD0052A20D0062A27D0002A73D03C
:103BC000082AB1D10D706BE735480168002902D091
:103BD000491E016064E7066062E70179002902D0AE
:103BE000491E0171BBE70371B9E74179002902D091
:103BF000491E4171BCE74671BAE71C4801780029AB
:103C000002D0491E0170BDE70370BBE71048017880
:103C1000002947D0491E0170BCE745E00004004080
:103C2000200000200B000020100000207500002064
:103C3000000000203D00002002000020C4470008D2
:103C4000120000203C000020340000200100002071
:103C5000040000202400002074705F6868256474EC
:103C6000705F6D696E25640D0A000000030000207E
:103C70000A0D3E3E202121205254432053657420DA
:103C8000416C61726D20737563636573732E2021BF
:103C900021203C3C0A0D0000050000203E000020D1
:103CA0001C000020067075E70820087013490020EA
:103CB000FDF76BFD12480068002884D011490F4CB5
:103CC0000D806178104D08183B2801D8687003E01A
:103CD0003C2100F003F96970A078A870E0E60B4879
:103CE00000687F28FAD3FCF7F1FABFF34F8F094938
:103CF0000748C860BFF34F8FFEE700002400002094
:103D00001C000020160000202800002020000020B9
:103D10000400FA0500ED00E010B501218CB0084662
:103D2000FDF7B3FB624C2046FCF754FF614800905E
:103D300061480190032003908020059000214000FD
:103D400002910690800007902020049108900002C4
:103D50000A91099069462046FCF77EFF0121204622
:103D6000FCF7A3FF0CB010BD30B5012189B04804A9
:103D7000FDF78BFB0321684601770024C4770220FE
:103D80000690092006A9C006FDF759F8012148024E
:103D9000FDF797FB474D403D2846FCF707FE684678
:103DA000FCF725FE012168460094017102940494F9
:103DB000694628460594FCF707FE012107220904FD
:103DC0002846FCF783FE072202212846FCF77EFEE8
:103DD0000722A9152846FCF779FE29052846FCF795
:103DE00017FE2846FCF795FE02212846FCF7BFFE89
:103DF00001212846FCF7B1FE01212846FCF7FFFD12
:103E00002C4601212046FCF7C2FE0028F9D00121F2
:103E10002046FCF711FE01212046FCF703FE01209D
:103E2000FCF73EFE0120FCF730FE2046FCF78DFE3D
:103E3000FFF772FF09B030BD10B520A000F03EFAC8
:103E40001D490420085EFF214B31484300F05CF817
:103E50001E49194C0A8B098B801A502250431B4A69
:103E6000A41E2032528800B2511A09B200F04CF858
:103E70001E3000B22080083810BD10B50E480088F2
:103E800000F0EEF8124A134B00F064F80B22D24314
:103E900000F0C8F80022104B00F05CF800F0EEF8DB
:103EA00010BD10B50448408800F0D2F810BD0000E5
:103EB00008000240402401407E000020414443317C
:103EC0002053544152540D0A00000000A0F7FF1F78
:103ED0003333333333330B400000084030B50B46E7
:103EE000014600202022012409E00D46D5409D42D4
:103EF00005D31D469540491B25469540401915465A
:103F0000521E002DF1DC30BD70B50024254600287E
:103F100001DA01244042002901DA01254942FFF774
:103F2000DDFFAC4200D04042002C00D0494270BDC1
:103F3000D2B201E00270401C491EFBD27047002241
:103F4000F6E710B513460A4604461946FFF7F0FF98
:103F5000204610BDF0B51FB488B00B990998002415
:103F600048400999C00F490049080991C0070B99B9
:103F70000090490049080B9109990898A646084302
:103F80001CD00B990A98084318D0099801244000C6
:103F9000420D4800410D099824050003000B204301
:103FA00009900B980003000B20430B9050181C49FC
:103FB0004018002201901446104605E000200146FA
:103FC0000DB0F0BD032801DA034600E003239C4650
:103FD000C11A0AAE0AE05F0008ADED5B4F00F75B67
:103FE0007D430027AA187C41491C5B1E6145F2DD18
:103FF000410004AB5A522104120C0A43240C401C09
:104000000828DFDB0198029000997046019100902A
:10401000059B049A0799069800F0CAF8D0E70000BB
:104020000DFCFFFF70B54B005B0803430BD04B004A
:104030005C0D002633466542B341D417AD1AA34147
:1040400002DB0020014670BD12053018514170BDE1
:1040500010B500229623114600F064F810BD000050
:104060000EB505490291002100910A460B460191C7
:1040700000F09EF803B000BD33040000CB0FDB0757
:10408000490010B5490802460A4307D00A0D072423
:104090000903E401090B121B002A01DC002010BDFA
:1040A000C900440F0C43C100E018D205801800F08D
:1040B00031F810BDF0B51FB40646002082B00546A9
:1040C0004024019100901BE0019922460F463046A2
:1040D00000F0E2F8049A059B801A994110D310462B
:1040E0001946224600F0C8F8361A8F410197224639
:1040F00001200021009F00F0BFF838184D410090CA
:104100002046641E0028DFDC019B009829463246C9
:1041100007B0F0BD002904DA401C490001D1400875
:104120004000704770B40024050C05D11024000431
:1041300002D1002921D01124050E01D1000208343A
:10414000050F01D10001241D850F01D18000A41CA1
:10415000002801DB4000641C002908D020252E1B0C
:104160000D46F540A14000D0012129430843010636
:104170001B1B000ADB1D02D5002070BC7047DB054D
:10418000181880180029F8DA401C4900F5D170BCD5
:1041900040084000704710B5002B08DA0024401C8E
:1041A000614192185B411A4301D14008400010BDA3
:1041B000F0B51FB482B005460C0003D0084600F0ED
:1041C0008DF802E000F08AF8203002460090214687
:1041D000284600F051F8049B059A04460F46184300
:1041E0001143084314D0184610431BD000984021B7
:1041F0000A1A1846059900F04FF805460E46009A2F
:104200000599049800F038F8084305D0012004E02F
:104210002046394607B0F0BD0020C11705430E43C4
:104220002C43374300990E986305401A7905E40A38
:1042300000220C43FD0A0A3002D500200146E9E7BE
:104240000105101969410C9C0D9D00196941FFF78A
:10425000A2FFDFE7064C0125064E05E0E36807CC28
:104260002B430C3C98471034B442F7D3FBF726FF9E
:104270001C4800083C48000810B5202A04DB014611
:10428000203A9140002010BD914020239C1A034603
:10429000E3401943904010BD10B5202A04DB0846C6
:1042A000203AD040002110BD0B46D340D0402024FE
:1042B000A21A91400843194610BD00000FB410B572
:1042C00003A9044B044A029800F03CF810BC08BC57
:1042D00004B0184723300008840000202021020C7D
:1042E00001D010211046020A01D0104608390209F7
:1042F00001D01046091F820801D01046891E4208CD
:1043000001D0881E7047081A704730B47446641E86
:104310002578641CAB4200D21D46635D5B00E31848
:1043200030BC184702E008C8121F08C1002AFAD1A1
:1043300070477047002001E001C1121F002AFBD125
:1043400070470000FFB591B00F460546002606E015
:1043500025280AD0149A139990476D1C761C28784A
:104360000028F5D1304615B0F0BD0024009401219D
:10437000F34A029400E004436D1C2B780846203B6E
:1043800098401042F7D128782A280ED002212878A8
:104390000246303A092A15D8009A0A235A43303A7D
:1043A00080180C436D1C0090F1E701CF00900028AD
:1043B00005DA0120400304430098404200900220A7
:1043C00004436D1C28782E2815D1042004436878F6
:1043D0006D1C2A280AD101CF6D1C02900BE00299B6
:1043E0000A225143303940186D1C0290287801464A
:1043F00030390929F3D928786C2810D006DC4C28EC
:104400001AD068280ED06A2817D104E0742813D077
:104410007A2812D110E00120400504430CE001216C
:10442000090501E0032109050C436978814203D1A4
:104430000120000524186D1C6D1C287803906E283F
:104440001ED00CDC632831D004DC00288AD0582828
:1044500011D1B2E064287BD069280CD178E07328B0
:104460002DD004DC6F2870D0702804D1A7E0752807
:104470006CD078286BD0149A13999047761C62E020
:104480006002400F022807D003280AD004283868A9
:104490000AD006603F1D56E03868F117066041609B
:1044A000F8E738680680F5E70670F3E7387869467C
:1044B00008740020487404A80390012003E03868C1
:1044C00003900020C0433F1D61070FD5002101E08C
:1044D0000199491C029A0191914213DA8142F7DB5A
:1044E000019A0399895C0029F2D10BE0002101E0D7
:1044F0000199491C01918142FADB019A0399895C77
:104500000029F5D101990098139A401A009021468C
:10451000149B00F03BF901998019461807E00398B5
:1045200003990078491C0391149A139990470198B4
:10453000401E0190401CF2D12146149B139A009812
:1045400000F014F986196D1C09E741E033E034E00E
:104550000A200021049005916002410F022905D034
:1045600001CFC2179446032905D007E0FF1DFF08BD
:10457000FF0003CF06E000B2C2179446042902D11F
:1045800040B2C1178C4600226146944506DA0A46BD
:104590000021404291418C462D2102E0210504D5A5
:1045A0002B216A461176012103E0E10701D0202189
:1045B000F7E7019154E00A200BE0102009E01020F9
:1045C000049000210420044308200591029003E098
:1045D00008200021059104906002410F022905D0B6
:1045E00001CF00229446032906D006E0FF1DFF08F4
:1045F000FF0003CF8C4603E080B2042900D1C0B293
:104600000021019121072BD50399702906D0049A26
:104610001021059B4A401A4305D00EE040216A460E
:104620001176012108E06146014306D030216A4637
:1046300011760399517602210191049A0821059B74
:104640004A401A430CD16146014301D1610707D5A5
:1046500030216A461176012101910299491E029189
:104660000399582904D037A103910FA90F910DE0A8
:1046700039A1F9E76146059B049AFFF71BFD039BEF
:104680008C469B5C0F9A521E0F9213706146014339
:10469000F0D10F9807A9081A20300390600704D5BD
:1046A000012000048443029801E001200290039954
:1046B000884201DD401A00E0002041180290019874
:1046C00009180098401A0090E00306D42146149B74
:1046D000139A009800F05AF886190020049008E018
:1046E00006A9085C149A139990470498401C761CFC
:1046F000049001998842F3DBE0030CD52146149B1A
:10470000139A009800F042F8861904E0149A3020B9
:1047100013999047761C0299481E02900029F5DCF7
:1047200008E00F980F990078491C0F91149A13997B
:104730009047761C0399481E03900029F1DCFBE6A4
:104740000928010030313233343536373839616267
:10475000636465660000000030313233343536372B
:10476000383941424344454600000000F8B504464C
:1047700000251E461746880404D405E0394620204B
:10478000B0476D1C641EF9D52846F8BDFFB5044638
:10479000002581B01E46C80301D5302700E0202740
:1047A000880404D505E038460399B0476D1C641EA3
:1047B000F9D5284605B0F0BD3F065B4F666D7D27F5
:1047C0007F6F0000000100000002000000040000F4
:1047D000000800000A0D3D3D3D3D3D3D3D3D3D3D58
:1047E0003D3D3D3D54696D652053657474696E6748
:1047F000733D3D3D3D3D3D3D3D3D3D3D3D3D3D3DB3
:104800003D3D3D3D3D3D3D3D3D3D3D3D3D3D3D3DD8
:104810003D3D3D3D3D3D0A0D000000003C48000887
:10482000000000208800000024430008C44800085D
:1048300088000020880800003443000800000000C1
:104840000000000000000000000000000000E8037D
:104850000000000000000000010000000000000057
:104860000000000000000000000000000000000048
:104870000000000000000000000000000000000038
:1048800000000102030401020304060708090000F6
:1048900000127A0000000000000000000102030482
:1048A00006070809000000000000000000000000EA
:1048B00000000000000000000000000000000000F8
:0448C00000000000F4
:04000005080000B53A
:00000001FF
