:020000040800F2
:1000000018090020C9000008E90E0008F5070008DB
:1000100000000000000000000000000000000000E0
:10002000000000000000000000000000F90F0008C0
:100030000000000000000000AD0F00084D1C00088B
:10004000DB0000080000000061160008DB0000086B
:10005000DB000008DB000008DB000008E905000801
:1000600000000000DB000008DB000008DB000008E7
:10007000DB000008DB000008DB00000800000000D7
:10008000D11C00080000000000000000DB00000898
:10009000DB000008DB000008DB000008DB000008D4
:1000A000DB000008DB000008DB0000087D20000802
:1000B0007D2100080348854600F080F8004800478D
:1000C000B12C000818090020044880470448004764
:1000D000FEE7FEE7FEE7FEE7FEE7FEE7711C00082D
:1000E000B500000830B50B4601460020202201244F
:1000F00009E00D46D5409D4205D31D469540491B5C
:100100002546954040191546521E002DF1DC30BDA4
:1001100070B500242546002801DA01244042002958
:1001200001DA01254942FFF7DDFFAC4200D0404231
:10013000002C00D0494270BDD2B201E00270401CD8
:10014000491EFBD270470022F6E710B513460A4657
:1001500004461946FFF7F0FF204610BDF0B51FB466
:100160000646002082B005464024019100901BE025
:10017000019922460F46304600F042F8049A059B4A
:10018000801A994110D310461946224600F028F8EB
:10019000361A8F410197224601200021009F00F06E
:1001A0001FF838184D4100902046641E0028DFDCFF
:1001B000019B00982946324607B0F0BD064C012548
:1001C000064E05E0E36807CC2B430C3C98471034FF
:1001D000B442F7D3FFF772FF302E0008502E00080C
:1001E00010B5202A04DB0146203A9140002010BDC2
:1001F000914020239C1A0346E3401943904010BDD0
:1002000010B5202A04DB0846203AD040002110BD5A
:100210000B46D340D0402024A21A914008431946EF
:1002200010BD0122D2030029C16801D0114300E0B2
:100230009143C1607047000030B5012189B0480486
:1002400000F0B6FE0321684601770024C47702203F
:100250000690092006A9C00600F06EFA01214802A6
:1002600000F0BEFE284D284600F0A0F8684600F0D9
:100270001CF90121684600940171029404946946B6
:100280002846059400F0F6F80121072209042846C3
:1002900000F03CF807220221284600F037F8072238
:1002A000A915284600F032F82905284600F033F851
:1002B000284600F08BF80221284600F06FF8012153
:1002C000284600F033F80121284600F026F82C4695
:1002D0000121204600F091F80028F9D001212046A4
:1002E00000F008F901212046FFF79BFF012000F0F4
:1002F000F3F8012000F0E2F8204600F0D1F800F019
:100300001FF809B030BD000000240140836A0B4390
:10031000836242617047016170470029816801D0A2
:10032000012200E002221143816070470029C16868
:1003300002D00122114301E049084900C160704721
:1003400010B501218CB0084600F032FE104C20465A
:1003500000F0E6F80F4800900F480190032003904A
:1003600080200590002140000291069080000790B7
:1003700020200491089000020A91099069462046C5
:1003800000F014F90121204600F0BEF80CB010BDB9
:10039000080002404024014082000020C26802237D
:1003A0009A43C260C2680A43C2607047064910B5EA
:1003B000884208D144150121204600F0AFFE0021FB
:1003C000204600F0ABFE10BD0024014082680021F1
:1003D0000123DB071A4382600F231B038268491C39
:1003E000D20FD207994201D0002AF7D181680029A3
:1003F00001DB006C70470020704702460020CB01F3
:1004000004D5926801231B069A4300E012680A4251
:1004100000D001207047000010B510A002F080F954
:1004200012490420085EFF214B314843FFF770FE5C
:100430000F490E4C0A8B098B801A502250430C4AEC
:10044000A41E2032528800B2511A09B2FFF760FE92
:100450001E3000B22080083810BD000041444331F6
:100460002053544152540D0A000000008200002025
:10047000A0F7FF1F30B5C368084A8C6813400A68AC
:100480000D792243CC686D032C4322430C694969E2
:1004900022430A431A43C26030BD000003D2FFFF6B
:1004A000816804221143816070470021016001715D
:1004B0008160C1600161416170470000012205490E
:1004C000D2050028886801D0104300E0904388607E
:1004D00070470000002701400122054992050028CD
:1004E000886801D0104300E09043886070470000A6
:1004F00000270140012292030029C16801D0114365
:1005000000E09143C16070470029016802D00122D8
:10051000114301E0014A114001607047FEFF0000F5
:100520000168204A11400160002101604160816042
:10053000C1601D491C4A0839904202D148680F2207
:1005400005E0194A1432904204D14868F022104361
:1005500048607047144A2832904203D148680F22FD
:100560001202F4E7104A3C32904203D148680F224D
:100570001203ECE70C4A5032904203D148680F2234
:100580001204E4E7084A6432904203D148680F221B
:100590001205DCE7044A78329042DAD148680F222B
:1005A0001206D4E7FEFF00000800024030B50368E1
:1005B0000C4A0C6A13408A684D6922430C692C432B
:1005C00022438C692243CC6922434C6A22438C6AC1
:1005D00022431A430260CA6842600A68826049681E
:1005E000C16030BD0F80FFFF10B5802000F002F821
:1005F00010BD00000149486170470000000401403F
:1006000001494861704700000004014010B583793A
:1006100018490268002B26D00B6893430B604A6888
:1006200003689A434A6002795218136804682343A6
:1006300013608A6803689A438A60CA6803689A43A9
:10064000CA604279102A05D051180A68006802432E
:100650000A6010BD8A6803681A438A60CA68006825
:100660000243CA6010BD00794018016891430160DF
:1006700010BD000000040140F0B585B003206946BC
:10068000087148710024CC7124480926F6060090B0
:10069000304600F051F86946214800F04DF86946AF
:1006A000204800F049F869460C710125CD7180277A
:1006B0003046009700F040F800211B4800F078FC1D
:1006C00000211A4800F080FC0021A80300F088FCFB
:1006D00000211748FFF721FE0721002001F022FA30
:1006E000694602978D730C730C20487302A8FFF7BC
:1006F0008DFF0720694608744C748D7404A800F0BF
:10070000F5FB0C48C169E8070143012001F09AF9A3
:100710000121084600F01EFC05B0F0BDFFFF0000FF
:10072000000400480008004801000E0002000220FA
:100730000024014000000020F0B5002201242346DF
:100740000D6893401D409D422AD10D79012D01D0A5
:10075000022D12D1876855000326AE40B74387604B
:100760004E79AE4085682E43866085889D4385809E
:1007700085888B7993401D43858006685500032347
:10078000AB409E4306600E790768AE403E4306606C
:10079000C6689E43C660CB79AB40C5682B43C36037
:1007A000521C102ACBD3F0BD4B07DB0E9A40C90870
:1007B00010B589000818016A0F249C40A14301620A
:1007C000016A1143016210BD008A70470246128A15
:1007D00000200A4200D0012070470246928A002081
:1007E0000A4200D001207047002A01D08161704781
:1007F0000185704701A001F093FFFBE74861726437
:100800004661756C745F48616E646C65722E2E2E45
:100810002E2E2E2E2E2E2E2E0D0A00001CB500215F
:10082000684601710121C171F020009009206946DC
:10083000C006FFF781FF1CBDF0B585B002F0F4F9EA
:100840009B49002508700246002801D099480560A0
:100850000127994C99489A4E9A49032A7BD018DC73
:10086000002A4FD0012A2ED0022A4BD10978002924
:100870007BD0072971D0012970D002296FD00529BA
:100880006ED006293ED1904801783B2969D2491C97
:10089000E0E0042A72D00B2A34D10A78002A31D140
:1008A0008A4A0F701178017152780546427188A00A
:1008B00001F036FF0A212879FFF714FC20806180BF
:1008C0000A21687988E00A78002A1DD0072A6ED0AC
:1008D000052A1BD00C46062A1AD0012A42D0022A29
:1008E00010D17A4902790B78934203D14B7846793B
:1008F000B34206D00A70407948707449002000F075
:100900004BFF257005B0F0BD07202CE006202AE043
:10091000FF200021013000F021FD31786846017090
:1009200069486A4601786846417085700295077388
:100930000120C007C10D0190002000F0E9FE69A070
:1009400001F0EEFE0121080300F096FE01210802ED
:1009500000F004FDD5E744E007E012E019E021E0F3
:100960002AE036E002200870CCE7684908780028C1
:1009700005D0012846D066480770C3E789E00F70AC
:10098000C0E7644801683B2901D2491C41E0056089
:10099000B8E70179172901D2491C42E005710A2103
:1009A000007911E041793B2902D2491C41E029E05C
:1009B00045710A2140790FE03078172801D2401C98
:1009C0003FE035700A213078FFF78CFB2080618092
:1009D00098E705700A210078FFF784FBA080E1808A
:1009E00090E70A783B23072A0ED01727012A14D054
:1009F000022A1AD0052A20D0062A26D0002A2DD075
:100A0000082AB1D10D707DE742480168002902D063
:100A1000491E016076E7036074E70179002902D07E
:100A2000491E0171BBE70771B9E74179002902D07E
:100A3000491E4171BDE74371BBE73078002802D001
:100A4000401E3070BEE73770BCE71F4801780029B0
:100A500002D0491E0170BDE70370BBE70820087093
:100A60001A49002000F0D4FD2A480068002884D0EC
:100A700029492A4C0D80154D697808183B2801D862
:100A8000607003E03C21FFF72DFB6170A878A07037
:100A900038E7234800687F289AD3FFF7EDFDBFF3BE
:100AA0004F8F21491F48C860BFF34F8FFEE70000FA
:100AB0003C000020180000203400002078000020B6
:100AC000030000200100002004000020240000207A
:100AD00074705F6868256474705F6D696E25640D5D
:100AE0000A0000000A0D3E3E2021212052544320DE
:100AF00053657420416C61726D2073756363657317
:100B0000732E202121203C3C0A0D0000050000200E
:100B1000410000201C0000201400002028000020BC
:100B2000200000200400FA0500ED00E0F8B5364C86
:100B3000208AC10767D04008400020820121092097
:100B40000903C006FFF749FE014630A001F0E8FDA9
:100B500060790026012815D06078082812D0A06995
:100B60003149401CA06188420DD3A07901280AD0E8
:100B7000FFF782FDBFF34F8F2D492C48C860BFF3AC
:100B80004F8FFEE7A661207B002801D0401E207316
:100B9000E079401CC0B2E0710A2800D9E6711A4F12
:100BA00060782437002828D1FFF736FCC0B23D46D4
:100BB000103560730F2802D20F20607304E02D28D7
:100BC00002D90220A07303E0E07908280DDAA673A9
:100BD00038780A21FFF786FA2880698078780A2118
:100BE000FFF780FAA880E98007E001260A21607BF0
:100BF000FFF778FA28806980A673BB787A7839780D
:100C00000CA001F08DFDF8BD00000020566F696357
:100C100065506F7765725377697463685374617454
:100C200065203A25640D0A008C0A00000400FA05CC
:100C300000ED00E0253032642D253032642D253062
:100C400032640D0A0000000070B51C4C208A0105BA
:100C50002DD50121C902884320822146243100205C
:100C600000F0D6FC6078082821D1E0693C21484397
:100C7000A18A88421CD3214628310A1F4B7850781C
:100C800083420BD23C25897892786B43684359188C
:100C90008018081AE1210901401807E03C258978ED
:100CA00092786B43684359188018081AA08270BD67
:100CB00000206070A0820120A07170BD00000020A3
:100CC0000B480178C91F0F2911D84178002901D09C
:100CD0001E290CD1064924398A79002A07D1807847
:100CE000002804D14879002801D10120887170477B
:100CF00024000020F8B57A48794B02463432477810
:100D0000108851889688DD7A764CD2883B0001F0B5
:100D100017FD0906455444446474859D4400704B96
:100D20009B7B002B10D0012B1FD0022B35D1235CD5
:100D30006B482C300380615C4180A15D8180A15CA7
:100D4000C180E9061BD01FE0235C65482C3003807E
:100D5000615C4180A15D8180A25CC2806B061CD574
:100D60008023194381801A4316E0225C5C482C30B2
:100D70000280615C41806321818039212BE0002168
:100D8000018041808180C180690606D582888021EA
:100D90000A438280C2880A43C280F8BD235C50485F
:100DA0002C300380615C4180A15D8180A15CC180A9
:100DB00020E0002101804180F8BD235C48482C30B0
:100DC0000380615C4180A15D8180A15CC180690676
:100DD000F2D5002120E0C180F8BD235C40482C30D2
:100DE0000380615C4180A35D80210B438380A25C12
:100DF0000A43C2806906DCD4F8BD235C38482C3035
:100E00000380615C4180A35D80210B438380A25CF1
:100E10000A43C2806A06EFD58180DCE7304D772037
:100E20002C352880382068802D48C0690A2805D2D2
:100E30000021A9800A21FFF755F904E00A21FFF7F4
:100E400051F9205CA880605CE880F8BD24484B2103
:100E5000878AC9008F422BD2214E00202C36308049
:100E60003C213846FFF73EF90F460A21FFF73AF9D1
:100E700000291AD1002070800A2F10D2B080384685
:100E80000A21FFF72FF9605CF080A80920D0012823
:100E9000DBD1134880222C30C18811439BE73846B0
:100EA0000A21FFF71FF9205CE8E7605C7080F6E735
:100EB0003846FFF717F90A4E205C2C3630803C216B
:100EC0003846FFF70FF90F460A21FFF70BF9ECE759
:100ED000034880222C30818811438180F8BD0000B6
:100EE00000000020842D00087047000030B5837892
:100EF00001210278002B15D094080E4BA400E418B1
:100F000023689207D50EFF22AA40934342789207A6
:100F1000120EAA401A4322600078C006C00E81401B
:100F2000054804E0D006C00E8140034880300160CF
:100F300030BD000000E400E000E100E004498A1553
:100F40000028086801D0104300E090430860704713
:100F5000007000400C4B1A689208920002431A601D
:100F60000A480369042213430361012906D00229B8
:100F700006D00169022211430161704730BF00E0D1
:100F800020BF01699143F7E70070004000ED00E0E9
:100F900005490A6904239A430A61012801D020BF48
:100FA000704730BF7047000000ED00E07047000060
:100FB000044A0029516901D0014300E08143516195
:100FC0007047000000100240044A0029D16901D096
:100FD000014300E08143D1617047000000100240EE
:100FE000044A0029916901D0014300E081439161E5
:100FF00070470000001002407047C94301827047EB
:101000004F6374202032203230313631363A353851
:101010003A30390000B589B0684600F08BF80CA072
:10102000009901F07DFB15A0019901F079FB1EA04C
:10103000029901F075FB27A0049901F071FB00F003
:101040002FF901462EA001F06BFB09B000BD000096
:101050005243435F436C6F636B5374727563747573
:1010600072652E535953434C4B5F467265717565DB
:101070006E637920202025640D0A00005243435FEF
:10108000436C6F636B5374727563747572652E482D
:10109000434C4B5F4672657175656E637920202005
:1010A000202025640D0A00005243435F436C6F63A8
:1010B0006B5374727563747572652E50434C4B5F3D
:1010C0004672657175656E63792020202020256445
:1010D0000D0A00005243435F436C6F636B5374729D
:1010E0007563747572652E434543434C4B5F46727E
:1010F000657175656E637920202025640D0A0000F6
:101100005243435F476574535953434C4B536F7578
:10111000726365203A253032780D0A00044A0029AE
:10112000D16801D0014300E08143D16070470000E5
:1011300000100240F8B5464D0446696800200C22B4
:10114000444E114005D0042903D0082903D00C29AE
:1011500018D0266018E06968686803228902D20303
:101160000F0F1040BF1C002809D0E86A0107090FC3
:101170003046491CFEF7B6FF7843206004E036484D
:101180007843FAE7354921606968354B0906090F4C
:101190005A5C21680F46D74067606A685205520F53
:1011A0009A5CD740A7602A6BD20501D42D4A05E08E
:1011B0006A68520401D47A0800E0BA08E2602A6B37
:1011C0005306294A03D4284B1233236100E02261DD
:1011D0002B6BDB0601D4666100E061612B6B9B0722
:1011E0000ED02B6B9B079B0F012B0BD02B6B9B0700
:1011F0009B0F022B08D02B6BDB439B0706D006E02E
:10120000A76104E0A16102E0A26100E0A6612B6B8E
:101210009B039B0F0FD02B6B9B039B0F012B0CD0C1
:10122000296B8903890F022909D0296B8903890F4A
:10123000032906D006E0E76104E0E16102E0E26133
:1012400000E0E661296B090600D404482062F8BD7D
:101250000010024000127A0000093D00006CDC0220
:1012600046000020809FD50000800000034600203B
:101270000A495A090CD0012A0CD0022A0CD0496B19
:10128000DA06D20E012393400B4200D001207047B2
:101290000968F5E7096AF3E7496AF1E700100240D7
:1012A000024840680C2108407047000000100240CE
:1012B00006490A6A520852000A620A6A04239A43DB
:1012C0000A620A6A02430A62704700000010024084
:1012D000034A516807231B02994301435160704739
:1012E000001002400122054912060028086801D0BA
:1012F000104300E090430860704700000010024077
:1013000010B5054A53687B24E403A3435360536834
:1013100008430343536010BD0010024001220549F9
:10132000D2030028086A01D0104300E0904308620D
:10133000704700000010024002490A6A02430A6234
:101340007047000000100240034A51688908890074
:1013500001435160704700000010024018B50022A0
:101360000092114ACA2353625323536200299168A1
:1013700002D00143916012E081439160000A012391
:101380009B03D168009C0140641C00949C4201D0E6
:101390000029F6D0D168014201D1002000E00120EF
:1013A000FF21516218BD00000028004001090A22F7
:1013B00000075143000F4018C0B27047002103E0FE
:1013C000491C0A38C9B2C0B20A28F9D20907090E65
:1013D000084370470EB5002000F090F91E4988427E
:1013E00015D000F0C9F81D480168019140680290CD
:1013F00000200090684600F05DF9002805D018A094
:1014000001F08EF900F014FA0EBD23A0F8E75B207E
:10141000FFF72CFF002801D02EA005E05A20FFF78F
:1014200025FF002802D034A001F07AF93BA001F09A
:1014300077F901210807FFF7C7FD0120FFF77EFDBF
:1014400000F0B0FA0120C00200F07AF80120C004D8
:10145000FFF7D6F80EBD0000F0320000700000204B
:101460000A0D2020202F215C2A2A2A2A2A205254C1
:1014700043205072657363616C657220436F6E66C2
:101480006967206F6B202A2A2A2A2A2A2A2A2F21D2
:101490005C200A0D000000000A0D2020202F215C96
:1014A0002A2A2A2A2A2052544320507265736361E3
:1014B0006C657220436F6E666967206661696C6552
:1014C00064202A2A2A2A2A2A2A2A2F215C200A0D65
:1014D000000000000D0A20506F776572204F6E20CB
:1014E0005265736574206F636375727265642E2E26
:1014F0002E2E0A0D000000000D0A2045787465723A
:101500006E616C205265736574206F6363757272CF
:1015100065642E2E2E2E0A0D000000000A0D204EAE
:101520006F206E65656420746F20636F6E666967F7
:10153000757265205254432E2E2E2E0A0D00000087
:1015400080210843C003C00BC2430348C3680B405B
:101550001A43C26070470000002800400009802143
:10156000084380B2C2430348C3680B401A43C260B9
:10157000704700000028004010B501210807FFF760
:1015800023FD0120FFF7DAFC0120FFF791FE212067
:10159000FFF76CFE0028FAD0FF200130FFF7CCFEE9
:1015A0000121C80300F068F80548FF2141607F2150
:1015B00001600120FFF7B2FE00F0F4F910BD000059
:1015C0007000002018B5002000900C48C168490642
:1015D00012D40021C943C16040220314C168009C99
:1015E0001140641C00949C4201D00029F6D0C068D0
:1015F000400601D4002018BD012018BD002800407D
:101600000248C16880229143C160704700280040B1
:1016100070B50C4610490B68104919408A024D04F8
:10162000920E22706D0E49066570490EA170590226
:10163000490E40231940E17000280BD11046FFF7F6
:10164000B5FE20706078FFF7B1FE6070A078FFF7FC
:10165000ADFEA07070BD0000002800407F7F7F00BD
:1016600010B500F079F901200003FFF777FF0120A2
:10167000C004FEF7C5FF10BD30B50D4ACA23536242
:101680005323536204250446094BAC43403328409E
:101690000029916804D0214391601968014303E057
:1016A000A1439160196881431960FF20506230BDE9
:1016B0000028004070B5054600260F4CCA20606225
:1016C00053206062FFF77EFF002811D0A068402100
:1016D0008843A060A06829680843A060A8682061CA
:1016E0002069A988090408432061FFF789FF0126C2
:1016F000FF206062304670BD00280040034908B5F5
:10170000800040180090006808BD0000502800408C
:1017100070B500211F4E0028B068144620D0400646
:1017200035D52078FFF742FE207BFFF73FFE20787B
:10173000A578000405436078E178000209040843B5
:101740000543207B00060543A06805436068054308
:10175000CA20706253207062F561FF20706270BD14
:10176000400600D4E1702078FFF728FE0504607879
:10177000FFF724FE00020543A078FFF71FFE054394
:10178000E07800040543207BFFF718FEDAE7E170FC
:10179000CAE7000000280040F8B502460027224DA5
:1017A0000C46002A0978AA68384605D052062FD57B
:1017B0000846FFF7FBFD2CE0520600D4E070084617
:1017C000FFF7FCFD06046078FFF7F8FD0002064312
:1017D000A078FFF7F3FD0643E07800040643CA2033
:1017E000686253206862FFF7EDFE00280CD00F48B6
:1017F00006402E60FFF704FFA868800603D400F0BF
:10180000D1F8002800D00127FF2068623846F8BDD3
:10181000E0702078A678000406436078E178000242
:1018200009040843DAE70000002800407F7F7F00BA
:1018300008B51E4800F074FF00216846C1701CA066
:1018400000F06EFF0821684601701FA000F068FFDD
:1018500020A000F065FF2621684641701AA000F024
:101860005FFF22A000F05CFF37216846817016A060
:1018700000F056FF69460020FFF78EFF002810D0C9
:1018800020A000F04DFF00F067F82849002000F08C
:10189000D9F801218803FFF7EFFE012000F0AAF834
:1018A00008BD23A000F03CFFF3E70000E82D00088E
:1018B0002020506C656173652053657420486F75F6
:1018C00072733A0A0D000000202025302E32640A7F
:1018D0000D0000002020506C656173652053657415
:1018E000204D696E757465733A0A0D002020506CA6
:1018F0006561736520536574205365636F6E64730F
:101900003A0A0D000A0D3E3E202121205254432068
:101910005365742054696D652073756363657373D3
:101920002E202121203C3C0A0D000000F032000056
:101930000A0D3E3E2021212052544320536574203D
:1019400054696D65206661696C65642E20212120D3
:101950003C3C0A0D0000000008B569460020FFF776
:1019600057FE684683784278017802A000F0D8FEDE
:1019700008BD00000A0D202054686520637572724E
:10198000656E742074696D65206973203A20202586
:10199000302E32643A25302E32643A25302E3264AD
:1019A000200A0D0018B500201149009088688006B3
:1019B00001D5012018BDCA20486253204862C8687A
:1019C000A0229043C86020229302C868009C104067
:1019D000641C00949C4201D00028F6D0C8688006A0
:1019E00001D5012000E00020FF224A6218BD00005E
:1019F0000028004018B5002100911149CA224A620E
:101A000053224A620A150028886802D01043886071
:101A100011E09043886004221303C868009C1040C2
:101A2000641C00949C4201D00028F6D0C86840078E
:101A300001D4002000E00120FF224A6218BD00000E
:101A400000280040034A08B580008018009001601B
:101A500008BD000050280040FEB5174E00220121AD
:101A60003046FEF7C1FE0122150229463046FEF738
:101A7000BBFE002768460771694630460095FEF7B1
:101A80005BFE0E4E002429460B48FEF79FFE002801
:101A900002D0641CB442F6D30121684601718771FB
:101AA00003214171FF200230009069460248FEF791
:101AB00043FE2046FEBD00000004004840420F00E7
:101AC000FF23DB43834348000549085C054918436D
:101AD00088821046521E92B20028FAD1888270473E
:101AE0002C000020000400487CB501218804FFF789
:101AF0005FFAFF200090012469460C710020887174
:101B00000320074D48712846FEF716FE69460F2050
:101B10008C71000200902846FEF70EFE7CBD00008E
:101B2000000400488A07130F10B50F229A408C0852
:101B30000549A40061188C6894438C608A689840B9
:101B400002438A6010BD00000000014010B504206F
:101B500000F070F81A487D21C9001A4C0068FEF7A1
:101B6000C1FA401EA042FDD8174948611748072214
:101B7000C3691B021B0A4C042343C3610020886114
:101B80000A61FFF7E1FB124C60680007800FFBD190
:101B9000FFF7A8FB20688001FCD40121C9040020C4
:101BA000FFF7AEFB0120FFF79DFB20688001FCD50D
:101BB0000220FFF7C9FB01208002FFF789FB10BD5F
:101BC00058000020FFFFFF0000E000E004ED00E00F
:101BD0000010024008B50020009014491120086050
:101BE0001348416841604168416041687F22D203E7
:101BF0009143416041680522D2041143416001686C
:101C0000012212061143016001688901FCD5416877
:101C1000890889004160416802221143416041689E
:101C20000907890F0229FAD108BD000000200240EF
:101C300000100240042204490428086902D090439D
:101C4000086170471043FBE700E000E006480188A8
:101C5000002901D0491E018004490878002801D0DC
:101C6000401E087070470000440000204200002021
:101C700010B5144801680122114301604168124AFD
:101C8000114041600168114A114001600168012260
:101C900092049143016041683F22120491434160E4
:101CA000C16A09090901C162016BFF2254329143E3
:101CB0000163416B49084900416300218160FFF7DE
:101CC00089FF10BD001002400CB8FFF8FFFFF6FEC0
:101CD000F8B501213948FFF790F9394801687F29A3
:101CE00001D2491C0160374E374C30780025C04383
:101CF0000007002826D120884021084320800920A1
:101D0000C006FEF761FDF021084030490309304A62
:101D100088710F2B15D0C30601D401230B708306E5
:101D200001D402230B70430601D403230B70000679
:101D300002D40420087002E00878002802D0107055
:101D400000E015701F490878401CC0B20870214996
:101D500006460A78521CD7B20F701E21FEF7C2F950
:101D60001D2904D120880121090308432080194836
:101D7000402F05D921880122D2021143218005700C
:101D800010487F2E04D90570208801210843208047
:101D90000E4C124E2570104D114F2878002806D198
:101DA00021783A888800305A80B2FFF789FE20787F
:101DB000401CC0B220700428EFD3F8BD00040040DE
:101DC000200000200B0000201000002078000020E0
:101DD000000000204000002002000020902D00089C
:101DE0003E0000200029018802D00122114301E0B9
:101DF00049084900018070471FB501210220FFF703
:101E0000E3F810216846017301214173817303A82F
:101E1000FFF76CF87D2001900A4968460180002197
:101E200001814180084C6946204600F017F80122E4
:101E30001146204600F00AF801212046FFF7D2FFA4
:101E40001FBD0000E703000000040040002A828953
:101E500001D00A4300E08A438281704710B50288AE
:101E6000144B984206D00124A407A04202D0124C81
:101E7000A04203D17024A2434C8822430F4CA042BD
:101E800003D00F4C22400C89224302804A68C26270
:101E90000A880285984208D00A4A904205D00A4A28
:101EA000904202D0094A904201D1897A01860121EB
:101EB000818210BD002C0140000400400010004051
:101EC000FFFC000000400140004401400048014088
:101ED000F0B5064687B000780A21FEF703F96A4696
:101EE0001070517004460D4670780A21FEF7FAF81A
:101EF0006A4600239070FF23D17016339380E31D50
:101F0000F93302270126D3801776012C00D11676EB
:101F10001746127EFF2653000B3601AAD6523B7E8F
:101F20005B1CDBB23B76002C01D15B1E3B763C7E1A
:101F3000EB1DF933640013533B7E3C465B1CDBB264
:101F40003B76002D01D15B1E2376247EFF230C33CC
:101F5000640013533B7E3C465B1CDBB23B7600289F
:101F600001D100290BD0C41DF9345B00D4523B7E53
:101F70003C465B1CDBB23B76012808D009E0FF2021
:101F8000183059005052207E401C207622E05B1E03
:101F900023761B06DB0DD652237E5B1CDBB2237639
:101FA000002801D15B1E2376237EC81DF9305B001B
:101FB000D052207E2346401CC0B22076002901D199
:101FC000401E1876187EFF210F3140001152197EF5
:101FD000491C1976217E104600F03CFB07B0F0BD8D
:101FE00070B501218AB04804FEF7E2FF01218803A1
:101FF000FEF7F6FF1B206946087200244C7201258B
:102000008D7202A8FEF772FF0921CE06012230462A
:10201000FEF7CAFB01220A213046FEF7C5FB03206A
:10202000400200900220694608718C71CD71032036
:1020300048713046FEF780FB4B200894C0010494A1
:102040000594069403900C200A4C079003A920469F
:1020500000F072FA4021204600F024FA01212046C7
:1020600000F027FA01220449204600F04FFA0AB096
:1020700070BD0000003801400501050070B5154D28
:10208000154C2946204600F025FA002817D029468D
:10209000204600F009FA204600F09CFA0F49C2B22F
:1020A000487800280BD10846851C002301244030C5
:1020B0007E2A05D10E78012E02D05A55847070BD4B
:1020C0008678725585786D1C8570EF2AF7D14C7033
:1020D0000B7070BD05010500003801408C00002028
:1020E000F0B501214C0489B02046FEF761FF0121C3
:1020F0002046FEF769FF1C216846017200244472E5
:102100000125857202A8FEF7F1FE0927FF060122CC
:1021100002213846FEF748FB012203213846FEF72C
:1021200043FB0C2602216846009601718471C5713B
:102130000321417169463846FEF7FEFAE120049416
:1021400005940694089440020A4C039003A907964C
:10215000204600F0F1F94021204600F0A3F90121CA
:10216000204600F0A6F901220349204600F0CEF9EE
:1021700009B0F0BD004400400501050070B5194DDF
:10218000194C2946204600F0A5F900281DD0294603
:10219000204600F089F9204600F01CFAC2B213482C
:1021A00013490270487800280FD10846841C002388
:1021B0004030402A0AD10D78012D07D00D49837097
:1021C00089780A558178491C817070BD85782A55B7
:1021D0008478641C8470232AF7D1012048700B7026
:1021E00070BD000005010500004400406C000020A7
:1021F000CF000020CC000020F8B50026224C00962D
:10220000607801282DD1667020A000F089FA0025A1
:102210002746403706E06019817822A000F080FA56
:102220006D1CEDB2B878A842F5D81FA000F078FA7E
:10223000E078694608703F2822D0214C612811D0EF
:1022400062281AD063280CD12279E1781DA000F011
:1022500067FA23A0E16900F063FA617B26A000F031
:102260005FFAF8BD0120A070FFF7F6FB81B2618232
:1022700025A000F055FAA670F8BDFEF7CBFEF8BD1C
:1022800025A000F04DFAF8BDCF0000200D0A1B5B21
:1022900033326D5258325F5354415254201B5B30DD
:1022A0006D0D0A00253478000D0A1B5B33316D5229
:1022B00058325F454E441B5B306D0D0A0000000034
:1022C0000000002040C4D6D6D3C9E8B6A8CAB1BC25
:1022D000E42020A3BA25642D25640D0A0000000027
:1022E00040B6A8CAB1C6F7C9E8B6A8CAB1BCE4A34B
:1022F000BA25640D0A00000040CEC2B6C8A3BA25B4
:1023000064B6C80D0A000000406765726C696768B2
:1023100074203A25640D0A0040B0EFD6FACEC4BC52
:10232000FEA1BE68656C70A1BF0D0A00F0B587B054
:1023300000254C4F009578780126012825D17D7025
:1023400049A000F0EDF90024403707E045480019A6
:1023500081784BA000F0E4F9641CE4B2B878A042A4
:10236000F4D848A000F0DCF93E486A464179117083
:10237000007A50703F2908D11421062000F04AF954
:10238000642000F033FC42480672414C0127A079DA
:102390003F03012810D109203946C006FEF71DFA77
:1023A000012801D100F093F9207A012804D138489E
:1023B00025722430FFF78CFD6079012803D0A179C4
:1023C000084331D039E009203946C006FEF705FA46
:1023D000012801D100F07BF9207A01282DD168462F
:1023E0000078422812D168464078002802D001289F
:1023F00010D00BE001216846490281800676314603
:1024000001A800F027F923A000F08AF9607A0128DA
:1024100001D004E06672207B00280ED126730021D3
:10242000422000F0F7F808E009203946C006FEF720
:10243000D4F9002801D100F04AF9684600783E2816
:102440000BD0A07A012806D12572207B002802D16A
:10245000A5726571A57107B0F0BD03202073A67247
:10246000F2E700008C0000200D0A1B5B33326D2068
:1024700052585F5354415254201B5B306D0D0A007B
:10248000253478000D0A52585F454E440D0A00006D
:1024900000000020545453436D6453656E642E2E27
:1024A0002E0D0A00016270470A0C01219140016261
:1024B00070470029016802D00122114301E0490858
:1024C0004900016070470246D26900200A4200D0EC
:1024D0000120704730B50A04130E0122144600256E
:1024E0008C40012B0ED0022B0ED08368090C2340A8
:1024F000C0698A401040002B02D0002800D001257E
:10250000284630BD0368F1E74368EFE710B50B04D8
:102510001C0E01238B40022C02D0032C02D002E0BF
:10252000001D00E008300168002A01D0194300E0D6
:102530009943016010BD000030B50446006889B0C1
:102540000D4640084000206060680321090388436D
:10255000A9680143616020681A49EA68084069680F
:1025600011432A69024311432160A0680321090233
:10257000884369690143A1606846FEF7DBFD1248A4
:10258000844201D1069805E01048844201D10798A1
:1025900000E0029821680904296800D54000FDF791
:1025A000A1FD2A6852088A4200D8401C216809040B
:1025B00004D50107064A490F10400843A08109B01D
:1025C00030BD0000F3E9FFFF003801400044004047
:1025D000F0FF0000808CC005C00D7047F8B50E46B6
:1025E00007460024084D0BE0395D284600F00EF840
:1025F00040212846FFF767FF0028F9D0641CE4B2A9
:10260000B442F1D3F8BD000000380140C905C90D3E
:10261000018570471CB5002300937E246A46019310
:102620001470FF24547006249470D0701371080A3B
:1026300050719171EF20064CD0712078002805D19F
:1026400008211046FFF7CAFF142020701CBD0000AF
:1026500042000020F0B591B00C4605464021684686
:10266000FDF771FD7E2168460170FF214170630016
:10267000D91C81702121C170002208E051006E5ADE
:10268000370A0E183771695C521C7171D2B2A242BE
:10269000F4D35200EF21101801715B1DD9B26846C6
:1026A000FFF79CFF11B0F0BD1CB501214804FEF7F7
:1026B0007FFC01206946087188710020C8710120E3
:1026C000000300900920C006FEF736F81CBD7CB55B
:1026D00003210924012549020322E4062D030128D0
:1026E0000FD000280CD100916846027142716946F2
:1026F0002046FEF721F8012229462046FEF774F80D
:102700007CBD009102216846017100218171012187
:10271000C171427169462046FEF70EF80022EBE7D0
:102720000FB410B503A9044B044A029800F024F832
:1027300010BC08BC04B01847052C00088800002015
:1027400030B47446641E2578641CAB4200D21D462A
:10275000635D5B00E31830BC184702E008C8121F35
:1027600008C1002AFAD170477047002001E001C17A
:10277000121F002AFBD17047FFB591B00F460546E6
:10278000002606E025280AD0149A139990476D1C5C
:10279000761C28780028F5D1304615B0F0BD00240D
:1027A00000940121F34A029400E004436D1C2B784D
:1027B0000846203B98401042F7D128782A280ED0AE
:1027C000022128780246303A092A15D8009A0A23AD
:1027D0005A43303A80180C436D1C0090F1E701CF4A
:1027E0000090002805DA012040030443009840428D
:1027F0000090022004436D1C28782E2815D1042057
:10280000044368786D1C2A280AD101CF6D1C029000
:102810000BE002990A225143303940186D1C029096
:102820002878014630390929F3D928786C2810D046
:1028300006DC4C281AD068280ED06A2817D104E08C
:10284000742813D07A2812D110E0012040050443E7
:102850000CE00121090501E0032109050C43697819
:10286000814203D10120000524186D1C6D1C2878BD
:1028700003906E281ED00CDC632831D004DC0028C5
:102880008AD0582811D1B2E064287BD069280CD1B5
:1028900078E073282DD004DC6F2870D0702804D124
:1028A000A7E075286CD078286BD0149A13999047BC
:1028B000761C62E06002400F022807D003280AD08D
:1028C000042838680AD006603F1D56E03868F117C2
:1028D00006604160F8E738680680F5E70670F3E7C0
:1028E0003878694608740020487404A803900120D1
:1028F00003E0386803900020C0433F1D61070FD5F7
:10290000002101E00199491C029A0191914213DAD8
:102910008142F7DB019A0399895C0029F2D10BE02F
:10292000002101E00199491C01918142FADB019AE1
:102930000399895C0029F5D101990098139A401AEE
:1029400000902146149B00F03BF90199801946182C
:1029500007E0039803990078491C0391149A13998E
:1029600090470198401E0190401CF2D12146149BD3
:10297000139A009800F014F986196D1C09E741E0DC
:1029800033E034E00A200021049005916002410FF9
:10299000022905D001CFC2179446032905D007E0CC
:1029A000FF1DFF08FF0003CF06E000B2C2179446E8
:1029B000042902D140B2C1178C46002261469445D9
:1029C00006DA0A460021404291418C462D2102E060
:1029D000210504D52B216A461176012103E0E10788
:1029E00001D02021F7E7019154E00A200BE01020EC
:1029F00009E01020049000210420044308200591E0
:102A0000029003E008200021059104906002410F2C
:102A1000022905D001CF00229446032906D006E002
:102A2000FF1DFF08FF0003CF8C4603E080B204299E
:102A300000D1C0B20021019121072BD50399702943
:102A400006D0049A1021059B4A401A4305D00EE097
:102A500040216A461176012108E06146014306D013
:102A600030216A4611760399517602210191049A28
:102A70000821059B4A401A430CD16146014301D10C
:102A8000610707D530216A4611760121019102992B
:102A9000491E02910399582904D037A103910FA927
:102AA0000F910DE039A1F9E76146059B049AFDF706
:102AB00055FB039B8C469B5C0F9A521E0F92137022
:102AC00061460143F0D10F9807A9081A20300390FE
:102AD000600704D5012000048443029801E001202E
:102AE00002900399884201DD401A00E0002041185D
:102AF0000290019809180098401A0090E00306D44B
:102B00002146149B139A009800F05AF88619002069
:102B1000049008E006A9085C149A13999047049859
:102B2000401C761C049001998842F3DBE0030CD52D
:102B30002146149B139A009800F042F8861904E08D
:102B4000149A302013999047761C0299481E0290DF
:102B50000029F5DC08E00F980F990078491C0F91C7
:102B6000149A13999047761C0399481E03900029E4
:102B7000F1DCFBE6092801003031323334353637D9
:102B800038396162636465660000000030313233B9
:102B90003435363738394142434445460000000059
:102BA000F8B5044600251E461746880404D405E0FF
:102BB00039462020B0476D1C641EF9D52846F8BD63
:102BC000FFB50446002581B01E46C80301D5302755
:102BD00000E02027880404D505E038460399B04773
:102BE0006D1C641EF9D5284605B0F0BD00210246D3
:102BF000401E80B2002AFAD1491C49B20A29F6DBEC
:102C00007047000070B5074D0446C1B22846FFF773
:102C1000FDFC40212846FFF756FC0028F9D020464D
:102C200070BD00000044004030B5204904464B7898
:102C30000A4600259278A34205D0002B03D0002C31
:102C400018D0002016E0002814D0C82A02D8CB786B
:102C50005B1CCB70CB78934223D3CD70002A12D06B
:102C6000012A01D901228A70C92201280DD0042825
:102C70000BD011E0C92A04D0012B01D0042B00D1C4
:102C800018468D7010E00822EDE78B78022B08D2F1
:102C900020460A308A70C0B2022804D0032802D02D
:102CA00002E0002000E08A704C7030BD7800002007
:102CB00000202C4C2062FEF749FFFFF791F9FFF747
:102CC0000FFAFEF711FFFDF7A9FDFFF7EDFC00205D
:102CD000FFF7FDFCFEF77EFBFFF78EF822A327A28D
:102CE00026A12748FFF71CFDFEF794F90120FEF707
:102CF00005FD002805DA0120FEF700FD4000400830
:102D0000E061184900202431FEF782FC154E0A21AB
:102D100024363078FDF7E6F935461035288069808D
:102D200070780A21FDF7DEF9A880E980FDF784FAC2
:102D300040250120FEF72CF9208A410606D5A8433C
:102D400020822078FDF778FDFDF7D4FFFDF77CFFAA
:102D5000FDF7ECFEFDF7B4FFFFF7E8FAFFF74CFADA
:102D6000E7E70000000000204F637420203220328B
:102D700030313631363A35383A303900302E31007C
:102D8000A02D00083F065B4F666D7D277F6F00001A
:102D90000001000000020000000400000008000024
:102DA0001B5B3033356D4D61696E20566572200DA9
:102DB0000A48415244574152455F5645523A25739D
:102DC000200D0A534F4654574152455F5645523ADB
:102DD00025730D0A446174653A25730D0A1B5B3037
:102DE0006D200D0A000000000A0D3D3D3D3D3D3DBA
:102DF0003D3D3D3D3D3D3D3D54696D652053657410
:102E000074696E67733D3D3D3D3D3D3D3D3D3D3DFE
:102E10003D3D3D3D3D3D3D3D3D3D3D3D3D3D3D3DE2
:102E20003D3D3D3D3D3D3D3D3D3D0A0D0000000029
:102E3000502E0008000000208C0000005A270008D7
:102E4000DC2E00088C0000208C0800006A27000897
:102E50000000000000000000000000000000000072
:102E60000000000000000000000000000100000061
:102E70000000000000000000000000000000000052
:102E800000000000000000000000000000008403BB
:102E90000000000000000000000001020304010225
:102EA000030406070809000000127A000000000071
:102EB00000000000010203040607080900000000EA
:102EC0000000000000000000000000000000000002
:0C2ED000000000000000000000000000F6
:04000005080000B53A
:00000001FF
